:020000040800F2
:10400000980F002031460008354400083744000866
:104010003B4400083F4400084344000800000000FF
:1040200000000000000000000000000047440008FD
:1040300049440008000000004B4400084D440008BB
:10404000474600084746000847460008474600081C
:10405000474600084746000847460008474600080C
:1040600047460008474600084746000847460008FC
:1040700047460008474600084746000847460008EC
:1040800047460008474600084746000847460008DC
:1040900047460008474600084746000847460008CC
:1040A00047460008474600084746000847460008BC
:1040B000BD6C000847460008474600084746000810
:1040C000474600084746000847460008474600089C
:1040D00047460008BB6900084746000847460008F5
:1040E00047460008474600084746000800F002F827
:1040F00000F05AF80AA090E8000C82448344AAF128
:104100000107DA4501D100F04FF8AFF2090EBAE825
:104110000F0013F0010F18BFFB1A43F001031847FB
:10412000C83A0000E83A00000A444FF0000C10F8CA
:10413000013B13F0070408BF10F8014B1D1108BF25
:1041400010F8015B641E05D010F8016B641E01F8C5
:10415000016BF9D113F0080F1EBF10F8014BAD1C15
:104160000C1B09D16D1E58BF01F801CBFAD505E033
:1041700014F8016B01F8016B6D1EF9D59142D6D38D
:10418000704700000023002400250026103A28BFB5
:1041900078C1FBD8520728BF30C148BF0B607047B9
:1041A0001FB51FBD10B510BD02F0ADFD1146FFF7E4
:1041B000F7FF00F0DEF802F0CBFD03B4FFF7F2FFEB
:1041C00003BC02F0D3FD000080F3088870470000B4
:1041D000F8B50020009000BF7D48007800283FD14E
:1041E00001207B490870002002F046F94FF033347B
:1041F000784D0020009078A1684602F075FD0122FC
:104200002046294602F0ACFC06463146684602F0DC
:104210006BFD73A1684602F067FD02236A46012127
:10422000082002F095F900246E4D002000906EA148
:10423000684602F059FD01222046294602F090FC12
:1042400006463146684602F04FFD6AA1684602F014
:104250004BFD02236A460321082002F079F987E02A
:104260005B48007801283FD102205949087000209E
:1042700002F002F90024604D002000905FA1684622
:1042800002F032FD01222046294602F069FC064672
:104290003146684602F028FD5AA1684602F024FD26
:1042A00002236A460121082002F052F9564D0020EF
:1042B000009056A1684602F017FD2046294602F0FC
:1042C00011FE074602F022FC06463146684602F01F
:1042D0000BFD50A1684602F007FD02236A46032148
:1042E000082002F035F943E03948007802283FD130
:1042F00000203749087002F0BFF80024464D002026
:10430000009046A1684602F0EFFC2046294602F0E4
:10431000E9FD074602F0FAFB06463146684602F020
:10432000E3FC3CA1684602F0DFFC02236A4601215F
:10433000082002F00DF93B4D002000903AA168469C
:1043400002F0D2FC2046294602F0CCFD074602F0DE
:10435000DDFB06463146684602F0C6FC2DA16846E4
:1043600002F0C2FC02236A460321082002F0F0F8A2
:10437000F8BD00F0DCF801F077FE4FF4E13002F018
:1043800007FA01F0DBFE02F008F8FF2002F074F8F3
:104390004FF47A7001F0A5FE4FF47A7001F0A1FE9F
:1043A000002002F069F812E0214800880A2804DBA6
:1043B00000201F490880FFF70BFF02F0EDFA1C48B0
:1043C0000088401C1A490880642001F08AFEEBE74F
:1043D0002400002033B3394054656D3A20000000BA
:1043E000646567000080534048756D69646974793D
:1043F0003A20000025000000006080404C6967689A
:10440000743A20004C75780000307940434F323ABE
:104410002000000070706D0000004C40434F3A20B7
:104420000000000000E0644054564F433A20000072
:1044300026000020704700BFFEE700BFFEE700BF78
:10444000FEE700BFFEE77047704770477047000007
:104450000CB50020019000906B48006840F480305B
:104460006949086000BF6848006800F400300090A7
:104470000198401C0190009818B90198B0F5A06F00
:10448000F1D16148006800F4003010B101200090C3
:1044900001E0002000900098012843D15B480068AB
:1044A00040F01000594908600846006820F00300F9
:1044B00008600846006840F0020008605248406802
:1044C000514948600846406848600846406840F4E2
:1044D000806048600846406820F47C1048600846C8
:1044E000406840F4E81048600846006840F080707A
:1044F000086000BF4448006800F000700028F9D050
:104500004148406820F003003F4948600846406841
:1045100040F00200486000BF3B48406800F00C00DB
:104520000828F9D10CBD10B5FFF792FF10BD10B5EA
:104530003548006840F0010033490860084640688B
:10454000334908403049486008460068314908400E
:104550002D4908600846006820F48020086008465D
:10456000406820F4FE0048604FF41F008860FFF7A9
:10457000DAFF29482949086010BD10B50021002044
:104580000022214B5B6803F00C0121B1042906D005
:10459000082928D107E0224B224C236027E0204B3A
:1045A000204C236023E0184B5B6803F47010164B1B
:1045B0005B6803F48032022303EB904022B91A4B6C
:1045C0004343184C23600DE00F4B5B6803F400334A
:1045D00023B1154B4343134C236003E0104B43437B
:1045E000104C236003E00E4B0E4C236000BF00BF55
:1045F000054B5B68C3F303130C4CE15C094B1B6870
:10460000CB40084C236010BD001002400020024047
:104610000000FFF8FFFFF6FE0040000808ED00E094
:1046200000127A002800002000093D002C00002024
:1046300008480047FEE7FEE7FEE7FEE7FEE7FEE785
:10464000FEE7FEE7FEE7FEE703480449044A054BA0
:1046500070470000ED40000898090020980F0020E6
:10466000980B0020980B002031490143314A11601A
:10467000704770B5002100230F22C47804B32D4C7D
:10468000246804F4E064C4F5E064210AC1F1040381
:10469000CA40447804FA03F18478144021430901A4
:1046A000254C0678A155047804F01F050124AC4080
:1046B00005786D11AD0005F1E025C5F8004109E070
:1046C000047804F01F050124AC401C4D06787611D7
:1046D00045F8264070BD1A4A0A400243154B1B1F7D
:1046E0001A60704739B1134A121D12680243114B08
:1046F0001B1D1A6006E00F4A121D126882430D4B03
:104700001B1D1A607047042808D14FF0E021096989
:1047100041F004014FF0E022116107E04FF0E02189
:10472000096921F004014FF0E02211617047000097
:104730000000FA050CED00E000E400E080E100E09C
:1047400080FFFF1F10B50446CC48844208D10121E8
:10475000042000F02DFB0021042000F029FB46E09E
:10476000C748844208D10121082000F021FB002124
:10477000082000F01DFB3AE0C248844208D1012124
:10478000102000F015FB0021102000F011FB2EE09E
:10479000BD48844208D10121202000F009FB0021FE
:1047A000202000F005FB22E0B848844208D1012116
:1047B000402000F0FDFA0021402000F0F9FA16E058
:1047C000B348844208D10121802000F0F1FA002191
:1047D000802000F0EDFA0AE0AE48844207D10121C2
:1047E000801500F0E5FA0021A01500F0E1FA10BDF7
:1047F00010B50121084600F0DBFA0021012000F08D
:10480000D7FA10BD2DE9F041024600250026002010
:1048100000230024002791F803C00CF00F0591F845
:1048200003C00CF0100CBCF1000F03D091F802C0D3
:104830004CEA050591F800C0BCF1000F31D01468B6
:1048400000202BE04FF0010C0CFA00F3B1F800C08F
:104850000CEA03069E4220D183004FF00F0C0CFAA5
:1048600003F7BC4305FA03FC4CEA040491F803C0C7
:10487000BCF1280F06D14FF0010C0CFA00FCC2F875
:1048800014C00AE091F803C0BCF1480F05D14FF005
:10489000010C0CFA00FCC2F810C0401C0828D1D34F
:1048A0001460B1F800C0BCF1FF0F34DD5468002083
:1048B0002EE000F1080C4FF0010808FA0CF3B1F8F3
:1048C00000C00CEA03069E4221D183004FF00F0C7A
:1048D0000CFA03F7BC4305FA03FC4CEA040491F814
:1048E00003C0BCF1280F05D100F1080C08FA0CF840
:1048F000C2F8148091F803C0BCF1480F07D100F151
:10490000080C4FF0010808FA0CF8C2F81080401C9F
:104910000828CED35460BDE8F0814FF6FF710180C6
:10492000022181700421C170704702460020936803
:104930000B400BB1012000E0002070470146886861
:1049400080B2704702460020D3680B400BB10120B3
:1049500000E0002070470146C86880B270470161DE
:104960007047416170470AB1016100E041617047E1
:10497000C16070474FF480320A4382618161826175
:1049800082698269704702460020434B18684FF6DF
:104990008073184040EA021008433F4B186070478C
:1049A0003E49C8617047F0B50A4600230024002143
:1049B000002500F00046B6F1004F02D1364EF169F5
:1049C00001E0354E7168C0F3034583B200F4401630
:1049D000B6F5401F08D121F070612F4E766826F0A1
:1049E00070662D4F7E6012E000F48016B6F5801FD1
:1049F00006D1032606FA05F4A14341F0706106E0F2
:104A0000460D360103FA06F6B14341F0706122B15A
:104A1000460D360103FA06F6314300F00046B6F1C2
:104A2000004F02D11C4EF16101E01B4E7160F0BDE0
:104A300030B500228B071C0F0F2303FA04F2164B2C
:104A400008338C1053F824309343134C08348D10E2
:104A500044F8253023468C1053F824308C07240F5B
:104A600000FA04F423430C4C08348D1044F825302C
:104A700030BD0A49DC310860704700000008014081
:104A8000000C0140001001400014014000180140DA
:104A9000001C0140002001400000014000002042B5
:104AA000DF48006840F00100DD49086008464068C2
:104AB000DC490840DA49486008460068DA4908409D
:104AC000D74908600846006820F48020086008463E
:104AD000406820F4FE0048604FF41F008860704773
:104AE000CF49096821F48031CD4A11601146096827
:104AF00021F480211160B0F5803F03D0B0F5802F04
:104B00000ED106E0C649096841F48031C44A1160FB
:104B100007E0C349096841F4A021C14A116000E0DF
:104B200000BF00BF704710B50146002200230020DF
:104B30004A11012A02D1BA4C236806E0022A02D1A6
:104B4000B74C236A01E0B64C636A01F01F020124EE
:104B500094401C400CB1012000E0002010BD38B58D
:104B6000002000900024002500BF3120FFF7DBFF6C
:104B700005460098401C00900098B0F5A06F01D049
:104B8000002DF2D03120FFF7CEFF08B1012400E064
:104B90000024204638BD01460020A14A106820F0BC
:104BA000F80040EAC10010607047A04908607047F3
:104BB000024600209A4B586820F47C1042EA010318
:104BC0001843974B586070479849086670470146EC
:104BD0000020934A506820F003000843506070475B
:104BE0008F48406800F00C007047014600208C4A56
:104BF000506820F0F00008435060704701460020E4
:104C0000874A506820F4E0600843506070470146CE
:104C10000020834A506820F4605040EAC100506090
:104C2000704729B17E4A527A02437D4B5A7204E0A2
:104C30007B4A527A82437A4B5A7270477B49D83109
:104C40000860704701460020754A506820F44040D3
:104C50000843506070470021714A20321170704A39
:104C600082F82010012802D004280AD104E0012192
:104C70006B4A2032117005E00521694A203211701B
:104C800000E000BF00BF7047694908607047644991
:104C9000096A0143624A11627047654944390860F4
:104CA000704730B500210022002400235C4D6D6860
:104CB00005F00C0121B1042905D0082923D105E014
:104CC0005C4D056022E05B4D05601FE0544D6D6852
:104CD00005F47012524D6D6805F48034022505EB21
:104CE00092421CB9544D554305600BE04C4D6D6824
:104CF00005F400351DB1504D5543056002E04D4DA2
:104D00005543056002E04B4D056000BF00BF444DB8
:104D10006D6805F0F0010909484D6B5C0568DD40E0
:104D200045603F4D6D6805F4E061090A434D6B5CD9
:104D30004568DD4085603A4D6D6805F46051C90AEB
:104D40003E4D6B5C4568DD40C560354D6D6805F4D2
:104D50004041890B3A4D6B5CC568B5FBF3F50561C5
:104D600030BD29B12E4A526902432D4B5A6104E0ED
:104D70002B4A526982432A4B5A61704729B1284A0B
:104D800092690243264B9A6104E0254A9269824364
:104D9000234B9A61704729B1214AD2690243204BC3
:104DA000DA6104E01E4AD26982431D4BDA61704722
:104DB00029B11B4AD2680243194BDA6004E0184A51
:104DC000D2688243164BDA60704729B1144A1269DF
:104DD0000243134B1A6104E0114A12698243104BDB
:104DE0001A61704712494039086070470F49C8641A
:104DF00070470B49C87170470948406A40F080709D
:104E000007494862704701460020054A92680A40F7
:104E10000AB1012000E00020704701498872704704
:104E2000001002400000FFF8FFFFF6FE00004242C3
:104E30008004424200127A0000093D003C0000203C
:104E40004C00002010B50446FB48844209D10121E2
:104E50008803FFF7ADFF00214FF48040FFF7A8FF64
:104E600032E0F648844209D101214804FFF7ADFF42
:104E700000214FF40030FFF7A8FF25E0F0488442FE
:104E800009D101218804FFF7A0FF00214FF4802001
:104E9000FFF79BFF18E0EB48844209D10121C804C9
:104EA000FFF793FF00214FF40020FFF78EFF0BE088
:104EB000E548844208D101210805FFF786FF00215B
:104EC0004FF48010FFF781FF10BD2DE9F04786B049
:104ED00005460E460024A24600BFA1460027B08921
:104EE00000B100BF2F462C8A4CF6FF700440F088BA
:104EF00004432C82AC894EF6F3100440B08831890B
:104F00000843718908430443AC81AC8A4FF6FF40E3
:104F10000440B0890443AC8201A8FFF7C2FEC64832
:104F2000874202D1DDF810A001E0DDF80CA0A889CD
:104F300000F4004040B10AEBCA0000EB0A103168EF
:104F40004900B0FBF1F807E00AEBCA0000EB0A10D9
:104F500031688900B0FBF1F86420B8FBF0F004017F
:104F60002009642101FB1089A88900F4004040B1A8
:104F7000322000EBC900B0FBF1F000F00700044361
:104F800008E0322000EB09106421B0FBF1F000F0E2
:104F90000F0004432C8106B0BDE8F0874FF4165192
:104FA000016000218180C18001810C2141810021AB
:104FB0008181704710B502460020108A4FF2FF032E
:104FC00018400B884C8823438C882343CC88234388
:104FD0001843108210BD0021018041808180C18072
:104FE000704721B1828942F40052828104E08289B3
:104FF0004DF6FF731A4082817047F0B503460024D6
:1050000000260025002040F66A17B94200D100BFF3
:105010001846C1F3421401F01F06012707FA06F5EE
:10502000012C01D10C3004E0022C01D1103000E041
:1050300014301AB107682F43076002E00768AF43D6
:105040000760F0BD1AB1838A0B43838202E0838A32
:105050008B4383827047028A4FF6F0731A400282B4
:10506000028A0A430282704782894FF2FF731A4014
:10507000828182890A438281704721B1828942F00C
:105080000202828104E082894FF6FD731A40828118
:105090007047028A4FF6DF731A400282028A0A437F
:1050A0000282704721B1028A42F48042028204E007
:1050B000028A4BF6FF731A4002827047C1F308025E
:1050C0008280704701468888C0F308007047818954
:1050D00041F0010181817047028BD2B20283028BC1
:1050E00042EA012202837047028B02F47F4202836C
:1050F000028B0A430283704721B1828A42F0200268
:10510000828204E0828A4FF6DF731A4082827047FF
:1051100021B1828A42F01002828204E0828A4FF634
:10512000EF731A408282704721B1828A42F00802EE
:10513000828204E0828A4FF6F7731A4082827047B7
:1051400021B1828942F40042828103E08289C2F364
:105150000E028281704721B1828A42F4006282820B
:1051600004E0828A4FF2FF731A4082827047828A7B
:105170004FF6FB731A408282828A0A43828270470A
:1051800021B1828A42F00202828204E0828A4FF6D2
:10519000FD731A408282704702460020B1F5007FFD
:1051A00000D100BF13880B400BB1012000E00020AC
:1051B000704701F40072B2F5007F00D100BFCA430E
:1051C0000280704770B502460024002300250020AD
:1051D00040F66A16B14200D100BFC1F3421501F09A
:1051E0001F03012606FA03F3012D02D196893340ED
:1051F00006E0022D02D1168A334001E0968A334040
:105200000C12012606FA04F41688344013B10CB1CE
:10521000012000E0002070BD10B50022002340F600
:105220006A14A14200D100BF0A1201249440A3B223
:10523000DC43048010BD0000003801400044004001
:1052400000480040004C00400050004010B50446AB
:10525000FE48844208D10121C014FFF7A9FD0021B6
:10526000E014FFF7A5FDC4E0B4F1804F08D101219F
:105270000846FFF7AAFD00210120FFF7A6FDB8E0D0
:10528000F348844208D101210220FFF79EFD00214E
:105290000220FFF79AFDACE0EE48844208D10121DC
:1052A0000420FFF792FD00210420FFF78EFDA0E00F
:1052B000E948844208D101210820FFF786FD00213A
:1052C0000820FFF782FD94E0E448844208D10121E0
:1052D0001020FFF77AFD00211020FFF776FD88E00F
:1052E000DF48844208D101212020FFF76EFD002114
:1052F0002020FFF76AFD7CE0DA48844208D10121D2
:105300004014FFF755FD00216014FFF751FD70E0D8
:10531000D548844209D10121C804FFF749FD002185
:105320004FF40020FFF744FD63E0D048844209D1E8
:1053300001210805FFF73CFD00214FF48010FFF725
:1053400037FD56E0CA48844209D101214805FFF7DC
:105350002FFD00214FF40010FFF72AFD49E0C5485A
:10536000844208D101214020FFF72FFD0021402079
:10537000FFF72BFD3DE0C048844208D10121802089
:10538000FFF723FD00218020FFF71FFD31E0BB4820
:10539000844208D101218015FFF717FD0021A015D7
:1053A000FFF713FD25E0B648844209D10121080426
:1053B000FFF7FEFC00214FF48030FFF7F9FC18E006
:1053C000B048844209D101214804FFF7F1FC0021D3
:1053D0004FF40030FFF7ECFC0BE0AB48844208D1FF
:1053E00001218804FFF7E4FC00214FF48020FFF73F
:1053F000DFFC10BD00220288944B98420ED0994BDE
:1054000098420BD0B0F1804F08D0914B984205D014
:10541000904B984202D0904B984204D14FF68F7334
:105420001A404B881A438D4B984207D08C4B9842B8
:1054300004D04FF6FF431A40CB881A4302808B8872
:1054400083850B880385814B98420BD0854B98420E
:1054500008D08B4B984205D08A4B984202D08A4B99
:10546000984201D10B7A038601238382704770B57D
:10547000002400220023058C4FF6FE76354005847B
:10548000028C8388048B4FF68F752C40B51E2C4000
:105490000D882C43751E2A400D892A434D882A43C6
:1054A0006A4DA8420BD06F4DA84208D0744DA84257
:1054B00005D0744DA84202D0734DA84213D14FF6C7
:1054C000F7752A404D892A434FF6FB752A408D888F
:1054D0002A434FF6FF652B404FF6FF552B408D8931
:1054E0002B43CD892B4383800483CD88858602841A
:1054F00070BD70B5002400220023058C4FF6EF76B6
:1055000035400584028C8388048B48F6FF752C4057
:105510004FF6FF452C400D884FF6FF7606EA05252D
:105520002C434FF6DF752A400D8906EA05152A43FC
:105530004D8806EA05152A43444DA84202D0494D3C
:10554000A8421DD14FF67F752A404D894FF6FF7650
:1055500006EA05152A434FF6BF752A408D8806EAEC
:1055600005152A434FF6FF352B404FF2FF752B40B0
:105570008D8906EA85052B43CD8906EA85052B43EF
:1055800083800483CD880587028470BD70B50024B4
:1055900000220023058C4FF6FF6635400584028CFF
:1055A0008388848B4FF68F752C404FF6FC752C400A
:1055B0000D882C434FF6FF552A400D894FF6FF7694
:1055C00006EA05252A434D8806EA05252A431F4D8C
:1055D000A84202D0234DA8421DD14FF2FF752A40A8
:1055E0004D894FF6FF7606EA05252A434FF6FF352B
:1055F0002A408D8806EA05252A434EF6FF752B4082
:105600004DF6FF752B408D8906EA05152B43CD8994
:1056100006EA05152B4383808483CD888587028421
:1056200070BD70B5002200230024058C4EF6FF7675
:1056300035400584038C8488828B48F6FF752A40A8
:105640004FF6FF452A400D8820E00000002C014065
:105650000004004000080040000C00400010004022
:105660000014004000340140004C01400050014053
:105670000054014000180040001C00400020004081
:105680000040014000440140004801404FF6FF76D1
:1056900006EA05252A434DF6FF752B400D8906EADB
:1056A00005352B434D8806EA05352B43FA4DA842B4
:1056B00002D0FA4DA84208D14BF6FF752C408D89D7
:1056C0004FF6FF7606EA85152C4384808283CD88C9
:1056D000A0F84050038470BD828B4FF2FF331A4014
:1056E0008283828B4FF6FF7303EA01231A4382837E
:1056F0007047F0B50C461546002200210026078CA5
:105700004EF6FF7C07EA0C070784828B018C4FF66C
:10571000FF7707EA043640F6FF473A404FF6FF7737
:1057200007EA05273A434FF6FF7707EA03373A437C
:10573000D94FB8420ED0D94FB8420BD0B0F1804FFC
:1057400008D0D74FB84205D0D64FB84202D0D64F76
:10575000B84206D14DF6FF77394046F480573943B9
:1057600005E047F6FF57394044F4805739438283B8
:105770000184F0BD828B4FF6F3731A408283828BD3
:105780000A4382837047F0B50C461546002200217B
:105790000026078C4FF6FF6C07EA0C070784828B04
:1057A000018C4FF6FF7707EA04264FF60C773A4054
:1057B0004FF6FF7707EA03172F433A43B64FB84235
:1057C0000ED0B64FB8420BD0B0F1804F08D0B44FD6
:1057D000B84205D0B34FB84202D0B34FB84206D159
:1057E0004FF6FF57394046F48077394305E04FF2D2
:1057F000FF57394044F48077394382830184F0BDF8
:10580000028B4FF2FF331A400283028B4FF6FF7375
:1058100003EA01231A4302837047F0B50C4615468C
:10582000002200210026078C4FF6EF7C07EA0C07C8
:105830000784028B018C4FF6FF7707EA041640F6C7
:10584000FF473A404FF6FF7707EA03373A434FF6F0
:10585000FF7707EA05273A438F4FB8420ED08F4FA4
:10586000B8420BD0B0F1804F08D08D4FB84205D070
:105870008C4FB84202D08C4FB84206D14FF6DF773A
:10588000394046F01007394305E04FF65F7739405D
:1058900044F01007394302830184F0BD028B4FF6B8
:1058A000F3731A400283028B0A4302837047F0B5F8
:1058B0000C46154600220021068C4FF6FE773E402E
:1058C0000684028B018C4FF60C7632407E1C06EA71
:1058D00003162E433243704EB0420ED06F4EB0428C
:1058E0000BD0B0F1804F08D06D4EB04205D06D4E58
:1058F000B04202D06C4EB04206D14FF6FD76314038
:1059000044F00106314305E04FF6F576314044F0AE
:105910000106314302830184F0BD70B505460C4693
:105920005D4885420ED05D4885420BD0B5F1804F71
:1059300008D05B48854205D05A48854202D05A4873
:10594000854200D100E000BF208850B92389A28899
:1059500061882846FFF7ABFFE1882846FFF79EFFE6
:1059600025E0208804280AD12389A2886188284656
:10597000FFF753FFE1882846FFF742FF17E0208832
:1059800008280AD12389A28861882846FFF7FBFEF0
:10599000E1882846FFF7EEFE09E02389A2886188A6
:1059A0002846FFF7A6FEE1882846FFF795FE70BD62
:1059B0002DE9F04105460C4600260127608808B90C
:1059C000022600E00026A088012801D1022700E07D
:1059D00001272088A0B92389A28861882846FFF77B
:1059E00066FFE1882846FFF759FF23893A4631468A
:1059F0002846FFF712FFE1882846FFF701FF13E072
:105A00002389A28861882846FFF707FFE188284696
:105A1000FFF7F6FE23893A4631462846FFF747FF4F
:105A2000E1882846FFF73AFFBDE8F0810A884B88F5
:105A30001A438B881A43CB881A430B891A434B8924
:105A40001A438B891A43A0F8442070474FF6FF7120
:105A5000818000210180C180418001727047002156
:105A6000018041808180C180018141818181C1812A
:105A70007047002101804180012181800021C18087
:105A8000018170470021018041808180C1800181B6
:105A90004181818170470000002C014000340140A9
:105AA0000004004000080040000C004021B10288C2
:105AB00042F00102028004E002884FF6FE731A40B1
:105AC0000280704731B1B0F8442042F40042A0F89F
:105AD000442005E0B0F84420C2F30E02A0F84420B0
:105AE00070471AB183890B43838102E083898B431A
:105AF000838170478182704741EA0203A0F84830F1
:105B000070471AB183890B43838102E083898B43F9
:105B10008381704701894FF6F87211400181704707
:105B20000A46002101894FF68F7319401143018104
:105B3000704730B504460D4629462046FFF7F0FF72
:105B4000208940F00700208130BD2DE9F041044656
:105B50000D4616461F46602D06D13B4601223146B2
:105B60002046FFF75AFE05E03B460122314620461B
:105B7000FFF79DFE29462046FFF7D2FF208940F01F
:105B800007002081BDE8F08130B50C460021018975
:105B9000C9B24FF6FF7505EA03251543254329438E
:105BA000018130BD2DE9F04105460E461746984665
:105BB000002443463A4631462846FFF7E5FF2C8944
:105BC0004FF6F870044044F007044FF68F7004401D
:105BD00044F070042C81BDE8F081F0B504460D4618
:105BE00016461F463B46324629462046FFF7CCFF65
:105BF000208940F480402081F0BD01858282704779
:105C00000A46002101884FF68F7319401143018025
:105C10007047F0B50C4615461E46002100220023B1
:105C20000189028B038C4FF6F877394021434FF6F8
:105C3000FC473A4040F201173A434FF6DD773B40CC
:105C40004FF6FF7707EA06172F433B430181028394
:105C50000384F0BD0A460021018B4FF68F73194073
:105C60001143018370470A460021018B48F6FF73F8
:105C700019404FF6FF7303EA02231943018370476B
:105C80000A460021818B4FF68F731940114381839F
:105C900070470A460021818B48F6FF7319404FF682
:105CA000FF7303EA022319438183704721B10288FD
:105CB00042F08002028004E002884FF67F731A40AF
:105CC0000280704721B1828842F00402828004E0A1
:105CD00082884FF6FB731A408280704721B1828818
:105CE00042F00802828004E082884FF6F7731A407F
:105CF0008280704721B1828842F00102828004E0F4
:105D000082884FF6FE731A40828070470A4600214F
:105D1000018B4FF6F77319401143018370470A4610
:105D20000021018B4FF2FF7319404FF6FF7303EA16
:105D300002231943018370470A460021818B4FF6E5
:105D4000F77319401143818370470A460021818B04
:105D50004FF2FF7319404FF6FF7303EA0223194312
:105D6000818370470A460021018B4FF6FB7319406F
:105D70001143018370470A460021018B4FF6FF3320
:105D800019404FF6FF7303EA02231943018370475A
:105D90000A460021818B4FF6FB7319401143818322
:105DA00070470A460021818B4FF6FF3319404FF6AA
:105DB000FF7303EA02231943818370470A460021D7
:105DC000018B4FF67F7319401143018370470A46D8
:105DD0000021018BC1F30E014FF6FF7303EA02238A
:105DE0001943018370470A460021818B4FF67F7368
:105DF00019401143818370470A460021818BC1F30A
:105E00000E014FF6FF7303EA0223194381837047A3
:105E10000A460021018C4FF6FD731940114301849D
:105E200070470A460021018C4FF6F7731940114361
:105E3000018470470A460021018C4FF6DF73194038
:105E40004FF6FF7303EA02131943018470470A46B1
:105E50000021018C4FF67F7319404FF6FF7303EA60
:105E600002131943018470470A460021018C4FF642
:105E7000FF5319404FF6FF7303EA022319430184CD
:105E800070470A460021018C4FF2FF7319404FF60C
:105E9000FF7303EA02231943018470470A46002175
:105EA000018C4DF6FF7319404FF6FF7303EA02337E
:105EB00019430184704730B5002301248C40A3B2FC
:105EC000048C9C430484048C02FA01F5ADB22C438B
:105ED000048430BD30B5002304248C40A3B2048C6C
:105EE0009C430484048C02FA01F5ADB22C43048473
:105EF00030BD70B503460020002418461830012537
:105F00008D40ACB21D8CA5431D8409B1082909D16F
:105F100000EB6100056825F0700505600568154314
:105F200005600EE00D1FC5F34E052844056825F4F5
:105F3000E045056005684FF6FF7606EA0226354320
:105F4000056070BD21B1028842F00202028004E0C7
:105F500002884FF6FD731A400280704721B1028813
:105F600042F00402028004E002884FF6FB731A40FC
:105F70000280704721B1828842F08002828004E072
:105F800082884FF67F731A408280704702884FF6EE
:105F9000F7731A40028002880A43028070478288A1
:105FA0004FF68F731A40828082880A43828070473E
:105FB00002894FF6F8731A40028102890A4302816E
:105FC000704702894FF67F731A40028102890A43A3
:105FD0000281704781847047818570478186704750
:105FE0000187704781877047A0F84010704702888A
:105FF0004FF6FF431A40028002880A43028070472E
:106000000146888E70470146088F70470146888F89
:1060100070470146B1F8400070470146888C7047D0
:106020000146088D704702460020138A0B400BB1D1
:10603000012000E000207047CA430282704730B55B
:106040000246002000230024158A05EA01039589F1
:1060500005EA010413B10CB1012000E0002030BDBD
:10606000CA4302827047000010B56FF00400FEF7CB
:106070004AFB2E4800682E49B0FBF1F02D4908700C
:106080000846007800EB4001C1EBC0104FF6FF71ED
:1060900001EAC0002849088010BD0146254A12784F
:1060A0004A434FF0E0235A6100229A611A4612696E
:1060B00042F001021A6100BF4FF0E022106900F0C7
:1060C00001021AB100F48032002AF5D04FF0E0222C
:1060D000126922F001024FF0E0231A6100229A6156
:1060E00070470146144A12884A434FF0E0235A6130
:1060F00000229A611A46126942F001021A6100BF39
:106100004FF0E022106900F001021AB100F4803271
:10611000002AF5D04FF0E022126922F001024FF080
:10612000E0231A6100229A617047000028000020D5
:1061300000127A00500000205200002008B5012112
:106140001020FEF71BFE4FF40050ADF800001020A9
:106150008DF8030003208DF8020069460F48FEF712
:1061600051FB4FF400510D48FEF7F9FB01210820C7
:10617000FEF704FE4FF4FE40ADF8000010208DF84D
:10618000030003208DF8020069460548FEF73AFB3C
:106190004FF4FE410248FEF7E2FB08BD001001404B
:1061A000000C014008B501210820FEF7E7FDC020E2
:1061B000ADF8000010208DF8030003208DF80200D8
:1061C0006946FE48FEF71EFB0120FD490860FD49B7
:1061D000C1F89C0108BD08B58020ADF80000102072
:1061E0008DF8030003208DF802006946F348FEF79E
:1061F00009FB08BD08B58020ADF8000001208DF82E
:10620000020004208DF803006946EC48FEF7FAFA14
:1062100008BD10B5FFF7DFFF0120E949091D08603F
:10622000E849C1F898010020E549091D0860E549E1
:10623000C1F8980110BD10B5FFF7CDFF0020E0496F
:106240000860E049C1F89C010120DD490860DD4992
:10625000C1F89C0110BD10B50024FFF7CBFF012051
:10626000D749091D0860D749C1F8980107E0601CAB
:10627000C4B2FA2C03DDFFF7DEFF012010BDD048C9
:106280007C3800680028F2D1CD49086000BFF5E7EE
:1062900010B50020CA490860FFF79DFF0020C949DA
:1062A000C1F89C010120C64908600020C549C1F819
:1062B000980110BD10B50020C1490860FFF78BFFA1
:1062C0000120C049C1F89C01BD4908600020BD49BA
:1062D000C1F8980110BD70B50446FFF77CFF00209F
:1062E000B749086000250EE0E009B549091D0860BE
:1062F0006006040E0120B349C1F898010020B0499E
:106300000860681CC5B2082DEEDB70BD70B505468F
:106310000024FFF76FFF002610E00020A849086066
:106320000120A849C1F898016006040EA4487C38F1
:10633000006808B1601CC4B2701CC6B2082EECDB49
:1063400015B9FFF7B7FF01E0FFF7A2FF204670BDC8
:1063500070B505460C46FFF75CFF7820FFF7BBFFE2
:10636000FFF779FF2846FFF7B6FFFFF774FF2046D7
:10637000FFF7B1FFFFF76FFFFFF75DFF70BD10B5CF
:10638000044621460020FFF7E3FF10BD10B5044688
:1063900021464020FFF7DCFF10BD10B5FFF702FFDC
:1063A0006420FFF79EFEAE20FFF7E9FF2020FFF7F5
:1063B000E6FF1020FFF7E3FFB020FFF7E0FFC82063
:1063C000FFF7DDFF0020FFF7DAFF1020FFF7D7FF10
:1063D0004020FFF7D4FF8120FFF7D1FFFF20FFF718
:1063E000CEFFA120FFF7CBFFA620FFF7C8FFA82014
:1063F000FFF7C5FF3F20FFF7C2FFA420FFF7BFFF55
:10640000D320FFF7BCFF0020FFF7B9FFD520FFF72F
:10641000B6FFF020FFF7B3FFD920FFF7B0FF22202F
:10642000FFF7ADFFDA20FFF7AAFF1220FFF7A7FF63
:10643000DB20FFF7A4FF2020FFF7A1FF8D20FFF74F
:106440009EFF1420FFF79BFFAF20FFF798FF10BDC2
:1064500070B504460D4605F1B001C8B2FFF78FFFD5
:10646000102141EA1410FFF78AFF04F00F0141F0F8
:106470000100FFF784FF70BD70B50646002415E0EB
:1064800004F1B001C8B2FFF77AFF0020FFF777FFF1
:106490001020FFF774FF002504E03046FFF776FF79
:1064A000681CC5B2802DF8DB601CC4B2082CE7DB89
:1064B00070BD70B50646022415E004F1B001C8B203
:1064C000FFF75DFF0020FFF75AFF1020FFF757FF8F
:1064D000002504E03046FFF759FF681CC5B2802D47
:1064E000F8DB601CC4B2082CE7DB70BD70B5044655
:1064F00004F1B001C8B2FFF742FF0020FFF73FFFF1
:106500001020FFF73CFF002504E0FF20FFF73EFFCF
:10651000681CC5B2802DF8DB70BD10B50020FFF7F8
:10652000ABFF10BD10B58D20FFF729FF1420FFF73A
:1065300026FFAF20FFF723FF10BD10B58D20FFF71A
:106540001EFF1020FFF71BFFAE20FFF718FF10BD46
:106550002DE9F0470646894617469A464FF000084F
:1065600000240025BAF1010F03D0BAF1020F67D160
:106570002EE020E0785D203800F0FF087E2E04DD5C
:10658000002609F1010000F0FF0949463046FFF7F7
:106590005FFF002409E008EB48010B4A02EB4101D0
:1065A000085DFFF7F3FE601CC4B2062CF3DBB01DE0
:1065B000C6B2681CC5B2785D002807E0000C014037
:1065C0009881214200802142D0730008D2D137E067
:1065D00032E0785D203800F0FF08782E04DD0026D8
:1065E00009F1010000F0FF0949463046FFF730FF8E
:1065F000002407E004EB0811634A505CFFF7C6FE75
:10660000601CC4B2082CF5DB09F10100C1B23046B0
:10661000FFF71EFF002408E004EB081108315A4A76
:10662000505CFFF7B3FE601CC4B2082CF4DB06F12B
:106630000800C6B2681CC5B2785D0028C9D100BF89
:1066400000BFBDE8F0872DE9F04180460E461746B1
:1066500000247D0131464046FFF7FAFE00BF08E006
:106660004A49495DC943C8B2FFF790FE6D1C601CE2
:10667000C4B2102CF4DB701CC1B24046FFF7E8FE38
:10668000002408E04149495DC943C8B2FFF77EFED6
:106690006D1C601CC4B2102CF4DBBDE8F0812DE948
:1066A000F05F06460F4690461C46DDF828A04FF0E6
:1066B000000BE11704EB5171C910A4EBC10131B912
:1066C0002046E11704EB5171C1F3C70506E02046EF
:1066D000E11704EB5171C910491CCDB23D4614E0DD
:1066E00029463046FFF7B4FEB1460AE059460BF1A1
:1066F000010B1AF80100FFF749FE09F1010000F053
:10670000FF09C145F2DB681CC5B2A542E8DBBDE864
:10671000F09F2DE9F0470646884617469946002522
:10672000002400BF2BE006EB0411C8B24146FFF77E
:106730008FFE002509E0202101FB0451795CC9434B
:10674000C8B2FFF723FE681CC5B2102DF3DB08F1B9
:106750000102D1B206EB0412D0B2FFF779FE102588
:1067600009E0202101FB0451795CC943C8B2FFF75D
:106770000DFE681CC5B2202DF3DB601CC4B24C4575
:10678000D1DBBDE8F0870000F87500085400002058
:1067900010B586B00446012144F20400FEF7EEFA7B
:1067A0004FF40070ADF8140003208DF81600182087
:1067B0008DF8170005A9CD48FEF724F84FF4806046
:1067C000ADF8140004208DF8170005A9C748FEF79E
:1067D00019F825208DF8000003208DF801008DF8B0
:1067E000020001208DF803006846FDF742FF019486
:1067F0000020ADF80800ADF80A00ADF80C00ADF8C7
:1068000010000C20ADF80E0001A9B948FEF75DFBA1
:10681000012240F22551B648FEF7EFFB0121B448B2
:10682000FEF7DFFB06B010BD10B504462146B048A8
:10683000FEF744FC00BF4021AD48FEF7ADFC002848
:10684000F9D010BD2DE9F04106460F4690460024D0
:1068500042463046394600F083F9054600BF04E061
:10686000285DFFF7E1FF601CC4B2285D0028F7D166
:10687000BDE8F08170B506460024304600F046F9C8
:10688000054600BF04E0285DFFF7CEFF601CC4B2E0
:10689000285D0028F7D170BD70B50446002500BF03
:1068A00004E0605DFFF7C0FF681CC5B2605D0028B2
:1068B000F7D170BD70B502460B46002500210024BB
:1068C0004FF6FF7000BF12E0555C684000240AE0FC
:1068D00000F0010626B140104AF20106704000E0C7
:1068E0004010661CB4B2082CF2DB4E1CB1B29942C7
:1068F000EADB70BD2DE9FC5F06460F461546002415
:10690000A0464FF005094FF0020A4FF0080B002097
:106910000090019055208DF80000AA208DF801000C
:106920008DF8026028128DF80300E8B28DF804009B
:1069300000BF06E0385D04EB09010DF80100601CA2
:1069400084B2AC42F6DBCAF1080081B26846FFF7B8
:10695000B1FF80464FEA28208DF8060008F0FF00BE
:106960008DF80700002405E01DF80400FFF75CFF28
:10697000601C84B2082CF7DBBDE8FC9F70B50446B0
:1069800020685C490840B0F1005F04D16568206868
:10699000FDF71AFCA84770BD10B5574800780128CC
:1069A00003D1C006FFF7EAFF06E05348007803284A
:1069B00002D15248FFF7E2FF10BD70B50024002657
:1069C000052540F225514A48FEF7FCFB00287DD002
:1069D0004748FEF777FBC4B24948008878B9552C80
:1069E00009D1484846490988445445480088401C14
:1069F0004349088002E000204149088070BD4048BA
:106A0000008801280FD1AA2C09D13E483C490988A9
:106A100044543B480088401C3949088002E000206B
:106A200037490880EAE73648008802280BD1354804
:106A30003349098844543048047031480088401C68
:106A40002F490880DAE72E480088032812D12D4804
:106A50002B49098844542C48048000884FF6FF7164
:106A600001EA00202849088025480088401C244964
:106A70000880C3E72248008804280ED12148204915
:106A8000098844542048008820431F4908801C4836
:106A90000088401C1A490880B0E71B480088284439
:106AA000801C17490988884208DD1648144909885E
:106AB000445413480088401C11490880124800883B
:106AC0002844801C0E490988884200E00BE00ADC5B
:106AD0000D480088284481B20A48FFF7EBFE0646BD
:106AE00000200749088000BF88E700000008014037
:106AF000003801400000FE2FF40400200040000890
:106B0000FC04002000050020FA04002070B50346B4
:106B1000002100240122002B05DA5B422D204E4D7E
:106B20006854481CC1B21C4600BF02EB8200420000
:106B3000A242FADD00BF0A2092FBF0F294FBF2F0D1
:106B40000A2590FBF5F605FB16003030424D6854DF
:106B5000481CC1B2012AEEDC00206854284670BDF2
:106B60002DE9F04F85B005460E4692460024A34617
:106B70004FF001090120049000BF0022134628466F
:106B8000314600F0F5F906D286F000462D20334953
:106B90000855601CC4B22846314600F0A3F983466C
:106BA000584600F0CEF92A463346CDE9020100F0FE
:106BB00019FB0746884600BF09EB89004FEA4009E8
:106BC000D945F9DD00BF0A2099FBF0F99BFBF9F0EC
:106BD0000A2190FBF1F201FB120030301F490855E9
:106BE000601CC4B2B9F1010FEDDCBAF1000F2CDD6D
:106BF0002E20085500BF601CC4B2AAF1010000F0AD
:106C0000FF0A049800EB800040000490049800F014
:106C100098F93A464346CDE9000100F0E5F9CDE99F
:106C2000020100F05FF90A2190FBF1F201FB120072
:106C300030300A490855BAF1000FDCD10021601C40
:106C4000C0B20446054A115402E000200349085529
:106C5000024805B0BDE8F08F1A090020290900207C
:106C60007FB505460C4601210846FEF794F8ADF8BD
:106C70000850ADF804400020ADF80A00ADF8060059
:106C800001A94FF08040FEF7B5FB012211469007A5
:106C9000FEF727FF1C208DF8000000208DF8010072
:106CA00003208DF8020001208DF803006846FDF7EF
:106CB000E0FC01218807FEF7F9FE7FBD10B5012138
:106CC0008807FFF7BCF958B10648006808B90120E9
:106CD00000E000200349086001218807FFF7C0F9A0
:106CE00010BD0000B4012242421E12F8013F002BE9
:106CF000FBD111F8013B002B02F8013BF9D17047A1
:106D0000704770477047754600F02CF8AE46050096
:106D10006946534620F00700854618B020B5FDF7B8
:106D200093FCBDE820404FF000064FF000074FF005
:106D300000084FF0000B21F00701AC46ACE8C00999
:106D4000ACE8C009ACE8C009ACE8C0098D467047A2
:106D500010B50446AFF300802046BDE81040FDF7B3
:106D60002CBA00000048704738090020014918205B
:106D7000ABBEFEE7260002007047000010B591EAA6
:106D8000030F48BF83F0004300F14082841A71EB87
:106D9000030C05D2121943EB0C03001B61EB0C0131
:106DA000DFF824E14FEA1154A4EB135C1EEA430F11
:106DB00018BF9EEA445F73D023EA0E03DCF1200E75
:106DC00021EA045143F4801332D322FA0CFE10EB73
:106DD0000E0023FA0CFE41EB0E01CCF1200E03FA5B
:106DE0000EFE10EB0E0051F10001B1F5801FCCF149
:106DF000200E32D201EB045112FA0EF2BDE810401F
:106E000058BF7047401C38BF5FEA420218BF704746
:106E1000002814BF20F0010041F100014FEA4103B6
:106E200013F5001F38BF7047A1F1C04100F0D4B97D
:106E3000012A43EB0302ACF1200CDCF11F0E32BF40
:106E40004FF0000E23FA0CF310EB030041EB04515A
:106E5000B4EB115FD0D0A1EB045101F580114908CA
:106E60005FEA300001EB04510ED350F1000038BF4F
:106E700012FA0EFE08D1BDE81040C9E7401C38BF29
:106E80005FEA4202CAD1C3E7BDE810404FEA4103BE
:106E900013F5001F38BF7047A1F1C04100F09CB945
:106EA0009EEA445F08D011EA5E0FBDE8104004BFBF
:106EB00001F0004100207047BDE8104070B500F0BF
:106EC0003DF900BF64FBBE3E0000E0FF491058BF23
:106ED000C1F140415B1058BFC3F140438B42EFF317
:106EE000008070474FEA41034FEA5353A3F5806394
:106EF000D3F11E03C8BFD3F1210C0CDD4FF00042CB
:106F000042EAC12242EA505232FA03FC8CEAE17CA6
:106F1000ACEBE1707047102BC4BF0020704703F545
:106F2000787CBCF1FF3F04D06FF0004282EA210080
:106F3000704770B500F002F9499224800020704734
:106F4000F2E710F0004248BF4042B0FA80F310FA76
:106F500003F10AD0C3F11D0303F580634FEA4150EA
:106F600002EB035202EBD12170474FF00000704753
:106F700051EA030C17D41CF5801F58BFBCF5801FC5
:106F800000F10680994218BF704708BF90427047D1
:106F900007D711F5801F58BF13F5801F19D49942E8
:106FA0007047894270471CF5801F08D5BCF5801FCB
:106FB000F7D58B4218BF704708BF824270474FF425
:106FC000001C1CEB410F38BF1CEB430F01D28B425E
:106FD000704770B500F0B2F8922449004FF00051AC
:106FE0004FF08053FFF772BFDFF848C170B51CEA5D
:106FF000111E1EBF1CEA13159EEA0C0F95EA0C0F1A
:1070000000F06F8081EA030423EA4C134EEAD47E39
:1070100021EA4C1141F4801143F48013AE44A1FBEA
:10702000024CA0FB0365AEF17F7E361955EB0C05D3
:10703000A1FB034C4CF10003A0FB021C16EB0C0659
:10704000654153F10003094218BF46F0010613F4ED
:10705000007F0BD14FEA03314FEA0530340341EA98
:10706000155140EA16506FF003020AE04FEAC321BF
:107070004FEAC520F40241EA555140EA56506FF0FC
:10708000020202EB2E4201EB025585EACE710AD0D4
:107090005FEA440C18BF24F0004450F1000041F1B5
:1070A000000120EAD47040F2FE7C624500D270BD3F
:1070B000A84214BF4FF080444FF04044002E08BF58
:1070C0000024BEF1806FA8BFA1F1C041BDE87040AF
:1070D00080F282804FF0000001F1C04101F00041D8
:1070E00070479EEA0C0F0CEA131518BF95EA0C0FB7
:1070F00006D04FF0000081EA030E0EF0004170BD93
:1071000000F01CF88900013E00F007B800F009B853
:107110004FEA430C5FEA5C5C08D081EA030100F0AF
:107120005BB84FEA410C5FEA5C5CF6D14FF00000BF
:10713000014970470000FF070000F87F0EF1020EC2
:107140002EF0030E5EF8046B364205D4012A43EBA1
:10715000030515F5001F12D8012841EB010C1CF5A1
:10716000001F0CD80ED14FEAD17C15F5001F0CEB97
:107170004C0C0CF1020C08BF4CEBD37C04E04FF03C
:10718000080C01E04FEAD37C0CEB4C0526FA05F61F
:1071900006F00706B6F1040C06D20EEB860CBDE82D
:1071A00070404CF0010C6047DFE80CF0090B020264
:1071B0004FF000414FF00000A1F5002170BD1946CD
:1071C0001046012851EB010418BFD4F5001484BF08
:1071D000002001F0004170BD0808A0F500114FEA41
:1071E0003101704791EA030F10B581F000413FF57E
:1071F000CDAD83F0004300F009B8000010B591EA6E
:10720000030F48BF83F000433FF5C0AD841A71EB14
:10721000030C07D212198CF0004C43EB0C03001B3B
:1072200061EB0C01DFF8A4E14FEA1154A4EB135C0D
:107230001EEA430F18BF9EEA445F00F0B08023EAC5
:107240006E03524221EA0451C3EB6E0338BF5B1E4A
:10725000DCF1200E25D322FA0CFE10EB0E0043FACF
:107260000CFE41EB0E01CCF1200E03FA0EFE10EBEA
:107270000E0051F10001CCF1200E29D412FA0EF2C9
:1072800001EB0451BDE8104058BF7047401C1CBFC3
:10729000B2F1004F704700280CBF491C20F00100DC
:1072A000704712EB020E43EB030218BF4FF0010EC2
:1072B0004EEA4202ACF1200CDCF11E0E54D943FA26
:1072C0000CFE10EB0E0051F1FF31CCF11E0ED5D5A6
:1072D0000EF1010E12FA0EFE404141EB010101EBED
:1072E000445C5FEA5C5C10D910EBDE7001EB04518A
:1072F00038BFBEF1004FBDE8104018BF70470028EE
:107300000CBF491C20F00100704730D24FEAD42C4A
:1073100011F5001124F400641BD0B1FA81F20B3A8C
:10732000A41AA41ED2F12003914030FA03F31943AA
:10733000904001EBCC71002C01EB0451BDE81040F2
:10734000A8BF704701F1C0414FF0000001F00041BB
:107350007047B0FA80F310FA03F100D110BDE41ABF
:10736000173C4805C90AE4E701EB045110BD491078
:1073700001EB0451BDE810404FEA300002E04FF04D
:10738000000170474A0008BF0042F8D0B2F5001F64
:1073900028BF704701F000414FF0000070479EEA9F
:1073A000445F07D011EA5E0FBDE8104004BF002122
:1073B00000207047BDE8104070B5FFF7BFFE00BF6A
:1073C00040DFF63E83F00041104670470000E0FFCA
:1073D0000000000000000000002F00000000070077
:1073E000070000147F147F1400242A7F2A120062F1
:1073F000640813230036495522500000050300009D
:1074000000001C224100000041221C000014083E24
:1074100008140008083E0808000000A060000008EA
:10742000080808080000606000000020100804023E
:10743000003E5149453E0000427F400000426151FC
:107440004946002141454B31001814127F10002796
:1074500045454539003C4A49493000017109050359
:1074600000364949493600064949291E000036368A
:1074700000000000563600000008142241000014ED
:1074800014141414000041221408000201510906CA
:1074900000324959513E007C1211127C007F49494B
:1074A0004936003E41414122007F4141221C007F7C
:1074B00049494941007F09090901003E4149497A8A
:1074C000007F0808087F0000417F41000020404104
:1074D0003F01007F08142241007F40404040007F70
:1074E000020C027F007F0408107F003E4141413EB4
:1074F000007F09090906003E4151215E007F0919FC
:1075000029460046494949310001017F0101003FF8
:107510004040403F001F2040201F003F4038403F78
:1075200000631408146300070870080700615149DC
:10753000454300007F41410000552A552A5500006F
:1075400041417F00000402010204004040404040ED
:10755000000001020400002054545478007F484485
:10756000443800384444442000384444487F0038BC
:107570005454541800087E0901020018A4A4A47CE5
:10758000007F080404780000447D400000408084AF
:107590007D00007F102844000000417F4000007CF7
:1075A00004180478007C0804047800384444443803
:1075B00000FC242424180018242418FC007C08044F
:1075C000040800485454542000043F444020003C28
:1075D0004040207C001C2040201C003C4030403CAF
:1075E000004428102844001CA0A0A07C004464543F
:1075F0004C44141414141414000000000000000083
:107600000000000000000000000000F80000000082
:10761000000000333000000000100C06100C0600C3
:10762000000000000000000040C07840C07840002A
:10763000043F04043F040400007088FC083000008C
:10764000001820FF211E0000F008F000E0180000E4
:1076500000211C031E211E0000F00888700000009D
:107660001E2123241927211010160E0000000000EF
:107670000000000000000000000000E0180402000C
:10768000000000071820400000020418E00000007D
:107690000040201807000000404080F0804040007B
:1076A0000202010F01020200000000F000000000D1
:1076B0000101011F010101000000000000000000A5
:1076C00080B070000000000000000000000000001A
:1076D00000010101010101010000000000000000A3
:1076E000003030000000000000000000806018043E
:1076F000006018060100000000E010080810E0001B
:10770000000F102020100F00001010F800000000E3
:107710000020203F2020000000700808088870002A
:1077200000302824222130000030088888483000AA
:107730000018202020110E000000C02010F80000CA
:1077400000070424243F240000F808888808080063
:107750000019212020110E0000E010888818000078
:10776000000F112020110E0000380808C83808004A
:107770000000003F000000000070880808887000CA
:10778000001C222121221C0000E010080810E0004B
:107790000000312222110F00000000C0C0000000D4
:1077A00000000030300000000000008000000000F9
:1077B00000008060000000000000804020100800F1
:1077C00000010204081020004040404040404000BA
:1077D0000404040404040400000810204080000095
:1077E0000020100804020100007048080808F0009A
:1077F0000000003036010000C030C828E810E0006A
:107800000718272423140B000000C038E0000000F4
:10781000203C23020227382008F88888887000005E
:10782000203F202020110E00C03008080808380032
:10783000071820202010080008F808080810E000A9
:10784000203F202020100F0008F88888E80810004A
:10785000203F20202320180008F88888E80810001E
:10786000203F200003000000C03008080838000056
:1078700007182020221E020008F808000008F80857
:10788000203F210101213F20000808F808080000DE
:107890000020203F2020000000000808F808080011
:1078A000C08080807F00000008F888C02818080089
:1078B000203F20012638200008F8080000000000C2
:1078C000203F20202020300008F8F800F8F80800B9
:1078D000203F003F003F200008F830C00008F808B3
:1078E000203F200007183F00E01008080810E000C3
:1078F0000F10202020100F0008F808080808F000DA
:10790000203F210101010000E01008080810E000FC
:107910000F18242438504F0008F888888888700091
:10792000203F2000030C3020007088080808380031
:107930000038202121221C00180808F80808180027
:107940000000203F2000000008F808000008F808A8
:10795000001F202020201F000878880000C8380859
:10796000000007380E010000F80800F80008F800D1
:10797000033C0700073C030008186880806818086B
:1079800020302C03032C30200838C800C8380800E9
:107990000000203F2000000010080808C838080038
:1079A0002038262120201800000000FE02020200DC
:1079B0000000007F40404000000C30C0000000008C
:1079C000000000010638C00000020202FE000000B4
:1079D000004040407F00000000000402020204005A
:1079E0000000000000000000000000000000000097
:1079F000808080808080808000020204000000007F
:107A00000000000000000000000080808080000076
:107A10000019242222223F2008F800808000000064
:107A2000003F112020110E00000000808080000027
:107A3000000E112020201100000000808088F80036
:107A4000000E112020103F20000080808080000068
:107A5000001F222222221300008080F088888818CC
:107A60000020203F202000000000808080808000D7
:107A7000006B94949493600008F80080808000006C
:107A8000203F210000203F20008098980000000047
:107A90000020203F20200000000000809898000077
:107AA00000C08080807F000008F800008080800097
:107AB000203F24022D302000000808F800000000BC
:107AC0000020203F20200000808080808080800077
:107AD000203F20003F20003F808000808080000009
:107AE000203F210000203F20000080808080000097
:107AF000001F202020201F008080008080000000C8
:107B000080FFA12020110E000000008080808000F6
:107B1000000E112020A0FF808080800080808000E7
:107B200020203F2120000100000080808080800014
:107B30000033242424241900008080E08080000089
:107B40000000001F202000008080000000808000D6
:107B5000001F202020103F20808080000080808037
:107B600000010E30080601008080008000808080C7
:107B70000F300C030C300F000080800080808000EC
:107B80000020312E0E312000808080000080808017
:107B900080818E70180601000080808080808000C7
:107BA0000021302C2221300000000000807C0202E5
:107BB00000000000003F404000000000FF00000007
:107BC00000000000FF0000000002027C80000000B6
:107BD0000040403F000000000006010102020404D2
:107BE0000000000000000000087C000800000020E9
:107BF0000005000028410008D47D00080005002091
:107C0000980A000084410008011027C0FF01089075
:107C10000132055A960421220A84A24A0468090105
:107C2000020304060708090C69104502040608103F
:107C300010102824E324285042424AD26A4640C009
:107C4000100801F9494F49F9011C40807F31211783
:107C500020102CE724242BFE92011AFE131601019A
:107C60007F211114FE4424157E8884E21809101027
:107C700012D2525F52F20445D2121010400A9F52A3
:107C800032121F1232529F180D0808E8292E28E8D8
:107C90000808C80C0B06311DFF0949895C3A0F62C0
:107CA000194019011809FF1010F0101116D04020CA
:107CB0001080402018064120103F44424140407847
:107CC000100A03050911FF118905C312E012F072B1
:107CD000F8073D4428FF11AA44700B830138448201
:107CE00092927401831E7C44C7017D01990562FF55
:107CF0009A0102818A010B013669419949FA010111
:107D0000A12A4001212A6D01212A6001791501640F
:107D10002ADB010915072ADA01212AD801212AC004
:107D2000010915072A800101352A06010918071CD7
:107D3000E66620076A86157A861C2A8601180A805C
:107D4000808686068686C0C00C0E1C0606D030765D
:107D50004D2907013113601C12FE1301021009C4E2
:107D60001820029E63B20E1DFF8181FFF244403055
:107D70000F12FF180923EAAABFAAEA033F0B012D3D
:107D8000BC808080080115240E0C082A01013149AD
:107D9000041D81808081021901B9170611010109B2
:107DA0000C0E0A14C0012178081E21404050215EAB
:107DB00008012A4DFFFFC1C10409232DC81580FC0D
:107DC000F3EFF3FC80FF80EEEEEEF5FBFF9CBEB61A
:047DD000B6883A0037
:04000005080040EDC2
:00000001FF
