:020000040800F2
:10000000081300200D040008110200081302000864
:10001000170200081B0200081F0200080000000071
:1000200000000000000000000000000023020008A3
:10003000250200080000000027020008290200082D
:1000400027040008270400082704000827040008E4
:1000500027040008270400082704000827040008D4
:1000600027040008270400082704000827040008C4
:1000700027040008270400082704000827040008B4
:1000800027040008270400082704000827040008A4
:100090002704000827040008270400082704000894
:1000A0002704000827040008270400082704000884
:1000B0002704000827040008270400082704000874
:1000C0002704000827040008270400082704000864
:1000D00027040008B11800082704000827040008B6
:1000E00027040008270400082704000800F002F88D
:1000F00000F03AF80AA090E8000C82448344AAF188
:100100000107DA4501D100F02FF8AFF2090EBAE885
:100110000F0013F0010F18BFFB1A43F0010318473B
:100120006425000084250000103A24BF78C878C1F7
:10013000FAD8520724BF30C830C144BF04680C60ED
:10014000704700000023002400250026103A28BF35
:1001500078C1FBD8520728BF30C148BF0B60704739
:100160001FB51FBD10B510BD02F05AFA1146FFF7BA
:10017000F7FF00F00DF802F078FA03B4FFF7F2FF92
:1001800003BC01F0B9FA000080F308887047000052
:1001900000250A2401F02AFA01F092FA4FF4E13026
:1001A00001F0BAFA2BE01648007888B90A2C21DB56
:1001B0000024681CC5B213480068C0431249C1F846
:1001C000B401052D16DD0025104801F063FB11E098
:1001D0000B480078022806D10A480068C0430A4943
:1001E000C1F8B40106E006480078032802D10748A8
:1001F00001F050FB601CC4B2642001F034FAD2E775
:1002000030000020B40122420000224200280008F1
:10021000704700BFFEE700BFFEE700BFFEE700BF7C
:10022000FEE7704770477047704700000CB500202C
:10023000019000906C48006840F480306A49086082
:1002400000BF6948006800F4003000900198401C2D
:100250000190009818B90198B0F5A06FF1D16248EB
:10026000006800F4003010B10120009001E000208F
:1002700000900098012843D15C48006840F01000CD
:100280005A4908600846006820F0030008600846E4
:10029000006840F0020008605348406852494860D6
:1002A0000846406848600846406840F480604860FE
:1002B0000846406820F47C1048600846406840F4D6
:1002C000E81048600846006840F08070086000BF91
:1002D0004548006800F000700028F9D042484068A6
:1002E00020F00300404948600846406840F00200A2
:1002F000486000BF3C48406800F00C000828F9D175
:100300000CBD10B5FFF792FF10BD10B53648006860
:1003100040F001003449086008464068344908400C
:100320003149486008460068324908402E49086053
:100330000846006820F4802008600846406820F4E1
:10034000FE0048604FF41F008860FFF7DAFF4FF0AF
:1003500000602949086010BD10B50021002000226E
:10036000214B5B6803F00C0121B1042906D0082958
:1003700028D107E0214B224C236027E01F4B204C63
:10038000236023E0184B5B6803F47010164B5B6826
:1003900003F48032022303EB904022B9194B43430C
:1003A000174C23600DE0104B5B6803F4003323B15E
:1003B000144B4343124C236003E0104B4343104C57
:1003C000236003E00D4B0E4C236000BF00BF064BC3
:1003D0005B68C3F303130C4CE15C094B1B68CB4017
:1003E000074C236010BD00000010024000200240B6
:1003F0000000FFF8FFFFF6FE08ED00E000127A00B3
:100400000000002000093D0004000020094880474A
:1004100009480047FEE7FEE7FEE7FEE7FEE7FEE7E6
:10042000FEE7FEE7FEE7FEE704480549054A064BFE
:10043000704700000B030008ED000008080D0020C5
:1004400008130020080F0020080F00203149014345
:10045000314A1160704770B5002100230F22C47823
:1004600004B32D4C246804F4E064C4F5E064210A6C
:10047000C1F10403CA40447804FA03F184781440BB
:1004800021430901254C0678A155047804F01F0585
:100490000124AC4005786D11AD0005F1E025C5F8EB
:1004A000004109E0047804F01F050124AC401C4D14
:1004B0000678761145F8264070BD1A4A0A40024374
:1004C000154B1B1F1A60704739B1134A121D126871
:1004D0000243114B1B1D1A6006E00F4A121D1268E1
:1004E00082430D4B1B1D1A607047042808D14FF042
:1004F000E021096941F004014FF0E022116107E0B9
:100500004FF0E021096921F004014FF0E022116170
:10051000704700000000FA050CED00E000E400E088
:1005200080E100E080FFFF1F10B50446CC48844204
:1005300008D10121042000F02DFB0021042000F04F
:1005400029FB46E0C748844208D10121082000F079
:1005500021FB0021082000F01DFB3AE0C248844244
:1005600008D10121102000F015FB0021102000F01F
:1005700011FB2EE0BD48844208D10121202000F06B
:1005800009FB0021202000F005FB22E0B84884424E
:1005900008D10121402000F0FDFA0021402000F0A8
:1005A000F9FA16E0B348844208D10121802000F016
:1005B000F1FA0021802000F0EDFA0AE0AE48844212
:1005C00007D10121801500F0E5FA0021A01500F007
:1005D000E1FA10BD10B50121084600F0DBFA002158
:1005E000012000F0D7FA10BD2DE9F04102460025A8
:1005F0000026002000230024002791F803C00CF0FF
:100600000F0591F803C00CF0100CBCF1000F03D0E3
:1006100091F802C04CEA050591F800C0BCF1000F4A
:1006200031D0146800202BE04FF0010C0CFA00F3DD
:10063000B1F800C00CEA03069E4220D183004FF0BF
:100640000F0C0CFA03F7BC4305FA03FC4CEA040454
:1006500091F803C0BCF1280F06D14FF0010C0CFA41
:1006600000FCC2F814C00AE091F803C0BCF1480FC6
:1006700005D14FF0010C0CFA00FCC2F810C0401C70
:100680000828D1D31460B1F800C0BCF1FF0F34DDED
:10069000546800202EE000F1080C4FF0010808FA21
:1006A0000CF3B1F800C00CEA03069E4221D183008E
:1006B0004FF00F0C0CFA03F7BC4305FA03FC4CEAAD
:1006C000040491F803C0BCF1280F05D100F1080C17
:1006D00008FA0CF8C2F8148091F803C0BCF1480F76
:1006E00007D100F1080C4FF0010808FA0CF8C2F825
:1006F0001080401C0828CED35460BDE8F0814FF62E
:10070000FF710180022181700421C170704702468F
:10071000002093680B400BB1012000E000207047DF
:100720000146886880B2704702460020D3680B40BB
:100730000BB1012000E0002070470146C86880B27C
:10074000704701617047416170470AB1016100E083
:1007500041617047C16070474FF480320A43826143
:100760008161826182698269704702460020434B41
:1007700018684FF68073184040EA021008433F4B58
:10078000186070473E49C8617047F0B50A460023BB
:1007900000240021002500F00046B6F1004F02D1F0
:1007A000364EF16901E0354E7168C0F3034583B2FE
:1007B00000F44016B6F5401F08D121F070612F4EAD
:1007C000766826F070662D4F7E6012E000F4801689
:1007D000B6F5801F06D1032606FA05F4A14341F0C1
:1007E000706106E0460D360103FA06F6B14341F0AA
:1007F000706122B1460D360103FA06F6314300F06E
:100800000046B6F1004F02D11C4EF16101E01B4ED3
:100810007160F0BD30B500228B071C0F0F2303FA67
:1008200004F2164B08338C1053F824309343134CC6
:1008300008348D1044F8253023468C1053F82430AA
:100840008C07240F00FA04F423430C4C08348D1059
:1008500044F8253030BD0A49DC310860704700009B
:1008600000080140000C014000100140001401404C
:1008700000180140001C0140002001400000014020
:1008800000002042DF48006840F00100DD490860B8
:1008900008464068DC490840DA4948600846006874
:1008A000DA490840D74908600846006820F48020EB
:1008B00008600846406820F4FE0048604FF41F00BE
:1008C00088607047CF49096821F48031CD4A1160B2
:1008D0001146096821F480211160B0F5803F03D0F2
:1008E000B0F5802F0ED106E0C649096841F4803189
:1008F000C44A116007E0C349096841F4A021C14A14
:10090000116000E000BF00BF704710B50146002233
:10091000002300204A11012A02D1BA4C236806E0C4
:10092000022A02D1B74C236A01E0B64C636A01F097
:100930001F02012494401C400CB1012000E0002063
:1009400010BD38B5002000900024002500BF3120E4
:10095000FFF7DBFF05460098401C00900098B0F5BB
:10096000A06F01D0002DF2D03120FFF7CEFF08B1EB
:10097000012400E00024204638BD01460020A14AA1
:10098000106820F0F80040EAC10010607047A049EC
:1009900008607047024600209A4B586820F47C108B
:1009A00042EA01031843974B58607047984908661C
:1009B000704701460020934A506820F00300084326
:1009C000506070478F48406800F00C007047014647
:1009D00000208C4A506820F0F000084350607047B7
:1009E00001460020874A506820F4E06008435060C8
:1009F000704701460020834A506820F4605040EA66
:100A0000C1005060704729B17E4A527A02437D4B43
:100A10005A7204E07B4A527A82437A4B5A72704788
:100A20007B49D8310860704701460020754A5068FC
:100A300020F440400843506070470021714A203242
:100A40001170704A82F82010012802D004280AD1BF
:100A500004E001216B4A2032117005E00521694A4A
:100A60002032117000E000BF00BF70476949086084
:100A700070476449096A0143624A116270476549D7
:100A800044390860704730B500210022002400235B
:100A90005C4D6D6805F00C0121B1042905D00829D1
:100AA00023D105E05C4D056022E05B4D05601FE051
:100AB000544D6D6805F47012524D6D6805F4803424
:100AC000022505EB92421CB9544D554305600BE0DD
:100AD0004C4D6D6805F400351DB1504D5543056012
:100AE00002E04D4D5543056002E04B4D056000BFEF
:100AF00000BF444D6D6805F0F0010909484D6B5C7D
:100B00000568DD4045603F4D6D6805F4E061090A08
:100B1000434D6B5C4568DD4085603A4D6D6805F47A
:100B20006051C90A3E4D6B5C4568DD40C560354D7E
:100B30006D6805F44041890B3A4D6B5CC568B5FBA7
:100B4000F3F5056130BD29B12E4A526902432D4BA0
:100B50005A6104E02B4A526982432A4B5A6170471A
:100B600029B1284A92690243264B9A6104E0254A3A
:100B700092698243234B9A61704729B1214AD26915
:100B80000243204BDA6104E01E4AD26982431D4BC6
:100B9000DA61704729B11B4AD2680243194BDA6007
:100BA00004E0184AD2688243164BDA60704729B1D4
:100BB000144A12690243134B1A6104E0114A126984
:100BC0008243104B1A6170471249403908607047E0
:100BD0000F49C86470470B49C87170470948406A9B
:100BE00040F0807007494862704701460020054A7E
:100BF00092680A400AB1012000E0002070470149D4
:100C000088727047001002400000FFF8FFFFF6FEF8
:100C1000000042428004424200127A0000093D0076
:100C2000140000202400002001460020FE4A106825
:100C300000F03800084310607047FB49096821F054
:100C40000801F94A116011460968014311607047B3
:100C5000F549096821F01001F34A1160114609684D
:100C6000014311607047F148EF494860F04848601F
:100C70007047EE48EC494860ED4848607047EA48E4
:100C8000006940F08000E84908617047E648006963
:100C900040F08000E449086170470420E249C968D7
:100CA00001F0010109B101200EE0DF49C96801F03E
:100CB000040109B1022007E0DB49C96801F0100115
:100CC00009B1032000E00420704700B50246042368
:100CD000FFF7E3FF034603E0FFF7DFFF0346521E83
:100CE000012B01D1002AF7D102B90523184600BD16
:100CF00030B5044604254FF43020FFF7E6FF0546E3
:100D0000042D17D1C848006940F00200C6490861A7
:100D100008464461006940F0400008614FF430200B
:100D2000FFF7D3FF0546C048006941F6FD71084052
:100D3000BD490861284630BD10B504244FF4302069
:100D4000FFF7C3FF0446042C16D1B748006940F0F2
:100D50000400B54908610846006940F04000086198
:100D60004FF43020FFF7B1FF0446AF48006941F669
:100D7000FB710840AC490861204610BD00B5024631
:100D80000423FFF78AFF034603E0FFF786FF0346CD
:100D9000521E012B01D1002AF7D102B905231846B2
:100DA00000BD10B504244FF43020FFF7E7FF0446E0
:100DB000042C16D19C48006940F004009A4908614F
:100DC0000846006940F0400008614FF43020FFF70A
:100DD000D5FF04469448006941F6FB7108409249EA
:100DE0000861204610BD00208F49C96901F0020149
:100DF00009B1012000E00020704730B5A52504248A
:100E0000FFF7F1FF00B100254FF43020FFF75DFF41
:100E10000446042C3AD18548834988608448886018
:100E20000846006940F0200008610846006940F06B
:100E3000400008614FF43020FFF747FF0446042CC0
:100E40001BD17948006941F6DF7108407649086195
:100E50000846006940F01000086176480580E0020D
:100E6000FFF733FF0446052C10D06F48006941F6A8
:100E7000EF7108406C49086108E0052C06D06A480B
:100E8000006941F6EF71084067490861204630BDAE
:100E900078B506460C46042500200090E802FFF7CE
:100EA00014FF0546042D24D15F48006940F001007D
:100EB0005D4908613480E802FFF707FF0546042D0D
:100EC00010D1B01C0090200C00990880E802FFF7B8
:100ED000FCFE05465448006941F6FE71084052493F
:100EE000086106E05048006941F6FE7108404E492D
:100EF0000861284678BD70B504460D460426F00208
:100F0000FFF7E3FE0646042E11D14748006940F082
:100F10000100454908612580F002FFF7D6FE06462C
:100F20004148006941F6FE7108403F49086130467A
:100F300070BD70B505460E460424E002FFF7C5FEFD
:100F40000446042C17D139483749886038488860EE
:100F50000846006940F0100008612E80E002FFF7AB
:100F6000B4FE0446052C06D02F48006941F6EF7107
:100F700008402D490861204670BD2DE9F043044624
:100F80004FF6FF763746B046B1460425E443E6B255
:100F9000C4F30727C4F307484FEA1469E802FFF7D0
:100FA00094FE0546042D49D120481F4988602048F9
:100FB00088600846006940F010000861FF2E06D0E6
:100FC0001C4808300680E802FFF77FFE0546042D26
:100FD00008D1FF2F06D017480A300780E802FFF734
:100FE00074FE0546042D0AD1B8F1FF0F07D0114851
:100FF0000C30A0F80080E802FFF767FE0546042DDC
:101000000AD1B9F1FF0F07D00A480E30A0F80090BE
:10101000E802FFF75AFE0546052D0FD00248006989
:1010200041F6EF71084007E00020024023016745C8
:10103000AB89EFCD00F8FF1F664908612846BDE87F
:10104000F08330B5054604244FF43020FFF73DFE11
:101050000446042C41D160485E4988605F4888603E
:101060000846006940F0200008610846006940F029
:10107000400008614FF43020FFF727FE0446042C9F
:1010800022D15448006941F6DF7108405149086196
:101090000846006940F0100008611DB10020504969
:1010A000088002E0A5204E4908804FF43020FFF769
:1010B0000CFE0446052C10D04648006941F6EF713D
:1010C00008404449086108E0052C06D04148006901
:1010D00041F6DF7108403F490861204630BDF0B558
:1010E00005460E46174604243B483A4988603B486B
:1010F0008860E002FFF7E9FD0446042C19D1354869
:10110000006940F010003349086147F0F8003043AF
:1011100028433349891C0880E002FFF7D6FD0446C6
:10112000052C06D02B48006941F6EF71084029498B
:1011300008612046F0BD2748C069800870472548EF
:10114000006A704700202349096801F0200109B1B5
:10115000012000E00020704729B11E4A12690243B5
:101160001C4B1A6104E01B4A12698243194B1A6135
:10117000704701460020012908D1164AD26902F0C1
:1011800001020AB1012008E0002006E0114AD268FD
:101190000A400AB1012000E0002070470D49C860F4
:1011A000704704200B49C96801F0010109B1012011
:1011B0000EE00849C96801F0040109B1022007E006
:1011C0000449C96801F0100109B1032000E00420BE
:1011D000704700000020024023016745AB89EFCD36
:1011E00000F8FF1F10B50446FB48844209D10121D5
:1011F0008803FFF7CFFC00214FF48040FFF7CAFCC3
:1012000032E0F648844209D101214804FFF7CFFCBF
:1012100000214FF40030FFF7CAFC25E0F04884427B
:1012200009D101218804FFF7C2FC00214FF480207E
:10123000FFF7BDFC18E0EB48844209D10121C80446
:10124000FFF7B5FC00214FF40020FFF7B0FC0BE0E6
:10125000E548844208D101210805FFF7A8FC0021D8
:101260004FF48010FFF7A3FC10BD2DE9F04786B0C6
:1012700005460E460024A24600BFA1460027B089BD
:1012800000B100BF2F462C8A4CF6FF700440F08856
:1012900004432C82AC894EF6F3100440B0883189A7
:1012A0000843718908430443AC81AC8A4FF6FF4080
:1012B0000440B0890443AC8201A8FFF7E4FBC648B0
:1012C000874202D1DDF810A001E0DDF80CA0A8896A
:1012D00000F4004040B10AEBCA0000EB0A1031688C
:1012E0004900B0FBF1F807E00AEBCA0000EB0A1076
:1012F00031688900B0FBF1F86420B8FBF0F004011C
:101300002009642101FB1089A88900F4004040B144
:10131000322000EBC900B0FBF1F000F007000443FD
:1013200008E0322000EB09106421B0FBF1F000F07E
:101330000F0004432C8106B0BDE8F0874FF416512E
:10134000016000218180C18001810C214181002147
:101350008181704710B502460020108A4FF2FF03CA
:1013600018400B884C8823438C882343CC88234324
:101370001843108210BD0021018041808180C1800E
:10138000704721B1828942F40052828104E082894F
:101390004DF6FF731A4082817047F0B50346002472
:1013A00000260025002040F66A17B94200D100BF90
:1013B0001846C1F3421401F01F06012707FA06F58B
:1013C000012C01D10C3004E0022C01D1103000E0DE
:1013D00014301AB107682F43076002E00768AF4373
:1013E0000760F0BD1AB1838A0B43838202E0838ACF
:1013F0008B4383827047028A4FF6F0731A40028251
:10140000028A0A430282704782894FF2FF731A40B0
:10141000828182890A438281704721B1828942F0A8
:101420000202828104E082894FF6FD731A408281B4
:101430007047028A4FF6DF731A400282028A0A431B
:101440000282704721B1028A42F48042028204E0A3
:10145000028A4BF6FF731A4002827047C1F30802FA
:101460008280704701468888C0F3080070478189F0
:1014700041F0010181817047028BD2B20283028B5D
:1014800042EA012202837047028B02F47F42028308
:10149000028B0A430283704721B1828A42F0200204
:1014A000828204E0828A4FF6DF731A40828270479C
:1014B00021B1828A42F01002828204E0828A4FF6D1
:1014C000EF731A408282704721B1828A42F008028B
:1014D000828204E0828A4FF6F7731A408282704754
:1014E00021B1828942F40042828103E08289C2F301
:1014F0000E028281704721B1828A42F400628282A8
:1015000004E0828A4FF2FF731A4082827047828A17
:101510004FF6FB731A408282828A0A4382827047A6
:1015200021B1828A42F00202828204E0828A4FF66E
:10153000FD731A408282704702460020B1F5007F99
:1015400000D100BF13880B400BB1012000E0002048
:10155000704701F40072B2F5007F00D100BFCA43AA
:101560000280704770B50246002400230025002049
:1015700040F66A16B14200D100BFC1F3421501F036
:101580001F03012606FA03F3012D02D19689334089
:1015900006E0022D02D1168A334001E0968A3340DC
:1015A0000C12012606FA04F41688344013B10CB16B
:1015B000012000E0002070BD10B50022002340F69D
:1015C0006A14A14200D100BF0A1201249440A3B2C0
:1015D000DC43048010BD000000380140004400409E
:1015E00000480040004C00400050004010B56FF033
:1015F0000400FEF77AFF2E4800682E49B0FBF1F098
:101600002D4908700846007800EB4001C1EBC0107E
:101610004FF6FF7101EAC0002849088010BD01465D
:10162000254A12784A434FF0E0235A6100229A611A
:101630001A46126942F001021A6100BF4FF0E0221F
:10164000106900F001021AB100F48032002AF5D0CE
:101650004FF0E022126922F001024FF0E0231A61FC
:1016600000229A6170470146144A12884A434FF09B
:10167000E0235A6100229A611A46126942F001027F
:101680001A6100BF4FF0E022106900F001021AB1A8
:1016900000F48032002AF5D04FF0E022126922F0E7
:1016A00001024FF0E0231A6100229A6170470000A6
:1016B0000000002000127A00280000202A000020EC
:1016C00008B501211020FFF74BFA4FF40050ADF898
:1016D000000010208DF8030003208DF802006946F9
:1016E0000448FEF781FF4FF400510248FFF729F844
:1016F00008BD00000010014000BF704700BF7047E8
:1017000000BFD54A128802F04002002AF9D0C2B2C6
:10171000D14B1B1D1A80704710B586B004460121BD
:1017200044F20400FFF71CFA4FF40070ADF8140007
:1017300003208DF8160018208DF8170005A9C7485A
:10174000FEF752FF4FF48060ADF8140004208DF8CE
:10175000170005A9C148FEF747FF25208DF80000B6
:1017600003208DF801008DF8020001208DF80300A0
:101770006846FEF770FE01940020ADF80800ADF851
:101780000A00ADF80C00ADF810000C20ADF80E000A
:1017900001A9B148FFF769FD012240F22551AE4889
:1017A000FFF7FBFD0121AC48FFF7EBFD06B010BDD4
:1017B00070B502460B460025002100244FF6FF704D
:1017C00000BF12E0555C684000240AE000F001060A
:1017D00026B140104AF20106704000E04010661C3D
:1017E000B4B2082CF2DB4E1CB1B29942EADB70BDF8
:1017F00010B5044621469848FFF730FE00BF40214F
:101800009548FFF799FE0028F9D010BD2DE9FC5F3F
:1018100006460F4615460024A0464FF005094FF036
:10182000020A4FF0080B00200090019055208DF81F
:101830000000AA208DF801008DF8026028128DF8B2
:101840000300E8B28DF8040000BF06E0385D04EB49
:1018500009010DF80100601C84B2AC42F6DBCAF14C
:10186000080081B26846FFF7A3FF80464FEA2820B0
:101870008DF8060008F0FF008DF80700002405E051
:101880001DF80400FFF7B4FF601C84B2082CF7DBDE
:10189000BDE8FC9F70B50446206871490840B0F16E
:1018A000005F04D165682068FEF76EFCA84770BD34
:1018B0002DE9F041002400250026002740F22551A3
:1018C0006548FFF74FFE00287BD06348FFF7CAFD4D
:1018D000C1B2644802880088401C624B188062488C
:1018E00081541846008840F21A41884269DB002082
:1018F0001946088000BF1CE05B48005D552816D1E2
:101900005949601C085CAA2811D1A01C085C552804
:101910000DD1E01C085CAA2809D1201D0E5C4FF6F1
:10192000FF7000EA0626601D085C064305E0601CA7
:1019300084B240F21A408442DEDB00BFA01940F2BC
:101940001A4188423DDA484801193246474800F0BA
:1019500075FD00250BE04548405D71192144424A60
:10196000515C884201D1781CC7B2681C85B2102D29
:10197000F1DB102F6ADBA01D84B22046611C8CB203
:101980003949085C3A49087008460078012819D19D
:101990002046611C8CB23449085C364908800846F0
:1019A00000884FF6FF7101EA002032490880204686
:1019B000611C8CB22C49085C2E49098808432D49CA
:1019C000088046E02A480078022842D1002516E027
:1019D0002046611C8CB22449085C274921F8150077
:1019E000084630F815202046611C8CB21E49085C60
:1019F00042EA0020204921F81500681C85B2B5F59F
:101A0000007FE5DB2046611C8CB21749085C1B494E
:101A10000880084600884FF6FF7101EA0020174948
:101A200008802046611C8CB20F49085C1349098864
:101A30000843124908800988114A881892140E49EF
:101A400000F047F85520FFF7D3FE02E0AA20FFF789
:101A5000CFFEBDE8F08100000038014000080140E1
:101A60000000FE2F360000207800002092080020A1
:101A700030000020320000209204002034000020BA
:101A8000002800080146088870472DE9F041054606
:101A90000E461746002407E036F814102846FFF7D4
:101AA0002AFAAD1C601C84B2BC42F5DBBDE8F081B3
:101AB00030B503460C461546002207E01846FFF7EE
:101AC000E1FF24F812009B1C501C82B2AA42F5DBF5
:101AD00030BD2DE9F05F80468A461746B8F1006FA9
:101AE00002D33748804501D3BDE8F09FFFF7BBF82C
:101AF000A8F1006B4FEA9B25CBF34809C9F50074A8
:101B0000A74200DC3C464DE04FF0006101EB852030
:101B10008A142C49FFF7CCFF00260BE009EB0600E6
:101B2000284931F810004FF6FF71884200D003E0D9
:101B3000701C86B2A642F1DB00BFA6421BDA4FF052
:101B4000006101EB8520FFF7D3F8002608E03AF8A2
:101B5000160006EB09011B4A22F81100701C86B220
:101B6000A642F4DB4FF0006101EB85208A14154991
:101B7000FFF78BFF04E0224651464046FFF785FF02
:101B8000A74200D10FE06D1C4FF000090AEB440A98
:101B9000A044381B87B2B7F5007F02DD4FF4007414
:101BA00000E03C46B0E700BFFFF769F800BF9BE7E5
:101BB00013B50446012201A92046FFF78AFF1CBD88
:101BC00000000208A2080020002101604160FE49D7
:101BD0008160FE4AC260CA430261FC4AD24342614C
:101BE000704770B503460024002010E00E5C451CD1
:101BF0004D5D46EA0526851C4D5D46EA0546C51C39
:101C00004D5D46EA056543F82450641C001D904272
:101C1000ECD370BD2DE9F043C0B080468946D8F8BA
:101C20000040D8F80450D8F80860D8F80C7040226A
:101C300049466846FFF7D5FF05EA060027EA050191
:101C4000084300990844E24908440444E00140EA9A
:101C500054642C4404EA050026EA0401084301996F
:101C60000844DC4908440744380340EA175727442E
:101C700007EA040025EA0701084302990844D64907
:101C800008440644700440EAD6363E4406EA07009B
:101C900024EA0601084303990844D049084405444E
:101CA000A80540EA9525354405EA060027EA05011E
:101CB000084304990844CA4908440444E00140EA3E
:101CC00054642C4404EA050026EA040108430599FB
:101CD0000844C44908440744380340EA17572744D6
:101CE00007EA040025EA0701084306990844BE49AB
:101CF00008440644700440EAD6363E4406EA07002B
:101D000024EA0601084307990844B84908440544F1
:101D1000A80540EA9525354405EA060027EA0501AD
:101D2000084308990844B24908440444E00140EAE1
:101D300054642C4404EA050026EA04010843099986
:101D40000844AC4908440744380340EA175727447D
:101D500007EA040025EA070108430A990844A0F5A8
:101D600024404F380644700440EAD6363E4406EA22
:101D7000070024EA060108430B9908449E490844D9
:101D80000544A80540EA9525354405EA060027EAFA
:101D9000050108430C990844984908440444E001AB
:101DA00040EA54642C4404EA050026EA040108438E
:101DB0000D990844924908440744380340EA1757EC
:101DC000274407EA040025EA070108430E9908445E
:101DD0008C4908440644700440EAD6363E4406EA7C
:101DE000070024EA060108430F990844864908447D
:101DF0000544A80540EA9525354405EA070026EA8A
:101E000007010843019908448049084404446001DB
:101E100040EAD4642C4404EA060025EA060108439B
:101E2000069908447A4908440744780240EAD7579B
:101E3000274407EA050024EA050108430B990844F2
:101E4000744908440644B00340EA96463E4406EA14
:101E5000040027EA04010843009908446E49084435
:101E60000544280540EA1535354405EA070026EA09
:101E7000070108430599084468490844044460017F
:101E800040EAD4642C4404EA060025EA060108432B
:101E90000A990844624908440744780240EAD7573F
:101EA000274407EA050024EA050108430F9908447E
:101EB0005C4908440644B00340EA96463E4406EABC
:101EC000040027EA040108430499084456490844D9
:101ED0000544280540EA1535354405EA070026EA99
:101EE0000701084309990844504908440444600123
:101EF00040EAD4642C4404EA060025EA06010843BB
:101F00000E9908444A4908440744780240EAD757E2
:101F1000274407EA050024EA050108430399084419
:101F2000444908440644B00340EA96463E4406EA63
:101F3000040027EA04010843089908443E4908447C
:101F40000544280540EA1535354405EA070026EA28
:101F5000070108430D9908443849084404446001C6
:101F600040EAD4642C4404EA060025EA060108434A
:101F700002990844324908440744780240EAD75796
:101F8000274407EA050024EA0501084307990844A5
:101F90002C4908440644B00340EA96463E4406EA0B
:101FA000040027EA040108430C9908442649084420
:101FB0000544280540EA1535354485EA0600784091
:101FC00005990844214943E00123456789ABCDEFDA
:101FD00078A46AD756B7C7E8DB702024EECEBDC11F
:101FE000AF0F7CF52AC68747134630A8019546FDFA
:101FF000D8988069AFF7448BBED75C892211906B6B
:10200000937198FD8E4379A62108B44962251EF686
:1020100040B340C0515A5E26AAC7B6E95D102FD61C
:102020005314440281E6A1D8C8FBD3E7E6CDE121F1
:10203000D60737C3870DD5F4ED145A4505E9E3A952
:10204000F8A3EFFCD9026F678A4C2A8D4239FAFF58
:1020500008440444200140EA14742C4484EA050036
:10206000704008990844FE4908440744F80240EAD1
:102070005757274487EA040068400B990844F949F8
:1020800008440644300440EA16463E4486EA070007
:1020900060400E990844F44908440544E80540EAC4
:1020A0005525354485EA0600784001990844EF49F2
:1020B00008440444200140EA14742C4484EA0500D6
:1020C000704004990844EA4908440744F80240EA89
:1020D0005757274487EA0400684007990844E549B0
:1020E00008440644300440EA16463E4486EA0700A7
:1020F00060400A990844E04908440544E80540EA7C
:102100005525354485EA060078400D990844DB4999
:1021100008440444200140EA14742C4484EA050075
:10212000704000990844D64908440744F80240EA40
:102130005757274487EA0400684003990844D14967
:1021400008440644300440EA16463E4486EA070046
:10215000604006990844CC4908440544E80540EA33
:102160005525354485EA0600784009990844C74951
:1021700008440444200140EA14742C4484EA050015
:1021800070400C990844C24908440744F80240EAE8
:102190005757274487EA040068400F990844BD490F
:1021A00008440644300440EA16463E4486EA0700E6
:1021B000604002990844B84908440544E80540EAEB
:1021C0005525354465EA0700704000990844B34935
:1021D00008440444A00140EA94642C4464EA0600E4
:1021E000684007990844AE4908440744B80240EAE9
:1021F0009757274467EA050060400E990844A949AB
:1022000008440644F00340EA56463E4466EA0400A9
:10221000784005990844A44908440544680540EA03
:10222000D525354465EA070070400C9908449F495C
:1022300008440444A00140EA94642C4464EA060083
:102240006840039908449A4908440744B80240EAA0
:102250009757274467EA050060400A990844954962
:1022600008440644F00340EA56463E4466EA040049
:10227000784001990844904908440544680540EABB
:10228000D525354465EA07007040089908448B4914
:1022900008440444A00140EA94642C4464EA060023
:1022A00068400F990844864908440744B80240EA48
:1022B0009757274467EA050060400699084481491A
:1022C00008440644F00340EA56463E4466EA0400E9
:1022D00078400D9908447C4908440544680540EA63
:1022E000D525354465EA07007040049908447749CC
:1022F00008440444A00140EA94642C4464EA0600C3
:1023000068400B990844724908440744B80240EAFF
:102310009757274467EA05006040029908446D49D1
:1023200008440644F00340EA56463E4466EA040088
:10233000784009990844684908440544680540EA1A
:10234000D5253544D8F800002044C8F80000D8F856
:1023500004002844C8F80400D8F808003044C8F83D
:102360000800D8F80C003844C8F80C0040B0BDE8AC
:10237000F0832DE9F04704460F4615460026B04687
:10238000B1462088C0F3C508C8F14009206800EBB9
:10239000C50020602068B0EBC50F02D26068401C09
:1023A0006060606800EB557060604D451CD304F1BF
:1023B000180101EB08004A46394600F0B6F804F16E
:1023C000180104F10800FFF725FC4E4605E0B91995
:1023D00004F10800FFF71EFC403606F14000A84259
:1023E000F5D94FF0000800E00026AA1BB91904F146
:1023F000180303EB080000F098F8BDE8F08770B50B
:10240000034614460022002015E011F822501D5406
:1024100031F82250C5F30726451C5E5551F822506D
:10242000C5F30746851C5E5551F822502D0EC61C7B
:102430009D55521C001DA042E7D370BD2DE9F0430D
:1024400099B006460F4690460025A94601AC2046A5
:10245000FFF7BAFB424639462046FFF78AFF3DE0C8
:1024600081F6718722619D6D0C38E5FD44EABEA4BA
:10247000A9CFDE4B604BBBF670BCBFBEC67E9B28AF
:10248000FA27A1EA8530EFD4051D880439D0D4D9C4
:10249000E599DBE6F87CA21F6556ACC4442229F41A
:1024A00097FF2A43A72394AB39A093FCC3595B65DC
:1024B00092CC0C8F7DF4EFFFD15D84854F7EA86FA9
:1024C000E0E62CFE144301A3A111084E827E53F7CF
:1024D00035F23ABDBBD2D72A91D386EB2088C0F320
:1024E000C505382D02D2C5F1380001E0C5F17800EC
:1024F00081460822214617A8FFF781FF4A4609496D
:102500002046FFF736FF082217A92046FFF731FFC4
:10251000102204F108013046FFF771FF19B0BDE841
:10252000F0830000380000207047032A40F230801A
:1025300010F0030C00F0158011F8013BBCF1020F04
:10254000624498BF11F801CB00F8013B38BF11F885
:10255000013BA2F1040298BF00F801CB38BF00F89C
:10256000013B11F0030300F02980083AC0F0088015
:1025700051F8043B083A51F804CBA0E80810F5E7FD
:10258000121D5CBF51F8043B40F8043BAFF30080E0
:10259000D20724BF11F8013B11F801CB48BF11F855
:1025A000012B24BF00F8013B00F801CB48BF00F825
:1025B000012B7047704770477047704710B5203A3D
:1025C000C0F00B80B1E81850203AA0E81850B1E8EC
:1025D0001850A0E81850BFF4F5AF5FEA027C24BFA2
:1025E000B1E81850A0E8185044BF18C918C0BDE899
:1025F00010405FEA827C24BF51F8043B40F8043B62
:1026000008BF7047D20728BF31F8023B48BF11F816
:10261000012B28BF20F8023B48BF00F8012B704770
:10262000754600F02BF8AE4605006946534620F08B
:102630000700854618B020B5FDF7F6FEBDE820403E
:102640004FF000064FF000074FF000084FF0000B6E
:1026500021F00701AC46ACE8C009ACE8C009ACE821
:10266000C009ACE8C0098D46704710B50446AFF309
:1026700000802046BDE81040FDF77FBD0048704750
:10268000A40C0020A4260008000000207800000010
:10269000280100081C270008780000209012000084
:1026A0004401000800A24A040000000000000000ED
:1026B00001020304060708090000000001020304E8
:1026C00001020304060708090204060800000000CE
:1026D000000000000000000000000000800000007A
:1026E00000000000000000000000000000000000EA
:1026F00000000000000000000000000000000000DA
:1027000000000000000000000000000000000000C9
:0C271000000000000000000000000000BD
:04000005080000ED02
:00000001FF
