:020000040800F2
:1000000048220020750400087D0200087F020008D5
:1000100083020008870200088B020008000000002D
:100020000000000000000000000000008F02000837
:100030009102000800000000DB670008CD240008E2
:100040008F0400088F0400088F0400088F04000844
:100050008F0400088F0400088F0400088F04000834
:100060008F0400088F0400088F0400088F04000824
:100070008F0400088F0400088F0400088F04000814
:100080008F0400088F0400088F0400088F04000804
:100090008F0400088F0400088F0400088F040008F4
:1000A0008F0400088F0400088F0400088F040008E4
:1000B000B53700088F040008000000008F04000816
:1000C0008F04000800000000000000008F040008FA
:1000D000000000009F2900088F04000800000000B5
:1000E0008F0400088F0400088F04000800F002F855
:1000F00000F05AF80AA090E8000C82448344AAF168
:100100000107DA4501D100F04FF8AFF2090EBAE865
:100110000F0013F0010F18BFFB1A43F0010318473B
:10012000B87D0000D87D00000A444FF0000C10F8A4
:10013000013B13F0070408BF10F8014B1D1108BF65
:1001400010F8015B641E05D010F8016B641E01F805
:10015000016BF9D113F0080F1EBF10F8014BAD1C55
:100160000C1B09D16D1E58BF01F801CBFAD505E073
:1001700014F8016B01F8016B6D1EF9D59142D6D3CD
:10018000704700000023002400250026103A28BFF5
:1001900078C1FBD8520728BF30C148BF0B607047F9
:1001A0001FB51FBD10B510BD06F0CBFB1146FFF704
:1001B000F7FF00F009F806F0E9FB03B4FFF7F2FFE0
:1001C00003BC06F0F1FB000000B585B002F08AF92F
:1001D0004FF4A06000F06EF94FF4E13002F04CFAF9
:1001E00002F0FEF904F09AFA03F0A0F904F00AFA1A
:1001F00002F061FF02F0EBFF684602F064FC1AA116
:10020000684602F075FC01236A461946002003F097
:100210008AF803F0C0F802F0DAFF4FF47A7002F0C7
:10022000B2F94FF47A7002F0AEF94FF47A7002F03E
:10023000AAF940F2CF2140F2CF7003F0C7FA41F69D
:100240001F4141F26F7003F087FA04F057FA04F08F
:10025000CDFB0A23074A0021074805F077FE04F08A
:10026000E7FC002005B000BD4F50454E20444F4FE5
:100270005200000004060020213D0008704700BF26
:10028000FEE700BFFEE700BFFEE700BFFEE77047E6
:10029000704700000CB50020019000906C48006889
:1002A00040F480306A49086000BF6948006800F483
:1002B000003000900198401C0190009818B90198F6
:1002C000B0F5A06FF1D16248006800F4003010B1C1
:1002D0000120009001E0002000900098012843D107
:1002E0005C48006840F010005A4908600846006801
:1002F00020F0030008600846006840F00200086033
:10030000534840685249486008464068486008467B
:10031000406840F4806048600846406820F47C10E3
:1003200048600846406840F4E810486008460068A5
:1003300040F08070086000BF4548006800F0007021
:100340000028F9D04248406820F003004049486046
:100350000846406840F00200486000BF3C484068E2
:1003600000F00C000828F9D10CBD10B5FFF792FF82
:1003700010BD10B53648006840F0010034490860EF
:1003800008464068344908403149486008460068DA
:10039000324908402E4908600846006820F4802051
:1003A00008600846406820F4FE0048604FF41F00D3
:1003B0008860FFF7DAFF4FF000602949086010BD40
:1003C00010B5002100200022214B5B6803F00C01D6
:1003D00021B1042906D0082928D107E0214B224C5D
:1003E000236027E01F4B204C236023E0184B5B6801
:1003F00003F47010164B5B6803F48032022303EBA6
:10040000904022B9194B4343174C23600DE0104B29
:100410005B6803F4003323B1144B4343124C236055
:1004200003E0104B4343104C236003E00D4B0E4C94
:10043000236000BF00BF064B5B68C3F303130C4C83
:10044000E15C094B1B68CB40074C236010BD0000EA
:1004500000100240002002400000FFF8FFFFF6FEFF
:1004600008ED00E000127A000000002000093D00C5
:10047000040000200948804709480047FEE7FEE7DE
:10048000FEE7FEE7FEE7FEE7FEE7FEE7FEE7FEE744
:1004900004480549054A064B7047000073030008ED
:1004A000ED000008481C002048220020481E0020C3
:1004B000481E002031490143314A1160704770B530
:1004C000002100230F22C47804B32D4C246804F4C7
:1004D000E064C4F5E064210AC1F10403CA40447831
:1004E00004FA03F18478144021430901254C06786D
:1004F000A155047804F01F050124AC4005786D1166
:10050000AD0005F1E025C5F8004109E0047804F0EC
:100510001F050124AC401C4D0678761145F8264095
:1005200070BD1A4A0A400243154B1B1F1A607047E0
:1005300039B1134A121D12680243114B1B1D1A6078
:1005400006E00F4A121D126882430D4B1B1D1A60F4
:100550007047042808D14FF0E021096941F00401F7
:100560004FF0E022116107E04FF0E021096921F02E
:1005700004014FF0E0221161704700000000FA050D
:100580000CED00E000E400E080E100E080FFFF1FF0
:1005900010B50446CC48844208D10121042000F063
:1005A0002DFB0021042000F029FB46E0C7488442CF
:1005B00008D10121082000F021FB0021082000F0D3
:1005C0001DFB3AE0C248844208D10121102000F00E
:1005D00015FB0021102000F011FB2EE0BD488442E5
:1005E00008D10121202000F009FB0021202000F08B
:1005F00005FB22E0B848844208D10121402000F0E8
:10060000FDFA0021402000F0F9FA16E0B3488442D8
:1006100008D10121802000F0F1FA0021802000F0B3
:10062000EDFA0AE0AE48844207D10121801500F0BE
:10063000E5FA0021A01500F0E1FA10BD10B5012186
:10064000084600F0DBFA0021012000F0D7FA10BDC7
:100650002DE9F04102460025002600200023002459
:10066000002791F803C00CF00F0591F803C00CF0BF
:10067000100CBCF1000F03D091F802C04CEA050544
:1006800091F800C0BCF1000F31D0146800202BE0BD
:100690004FF0010C0CFA00F3B1F800C00CEA0306AD
:1006A0009E4220D183004FF00F0C0CFA03F7BC439D
:1006B00005FA03FC4CEA040491F803C0BCF1280FCE
:1006C00006D14FF0010C0CFA00FCC2F814C00AE08D
:1006D00091F803C0BCF1480F05D14FF0010C0CFAA2
:1006E00000FCC2F810C0401C0828D1D31460B1F837
:1006F00000C0BCF1FF0F34DD546800202EE000F193
:10070000080C4FF0010808FA0CF3B1F800C00CEA2D
:1007100003069E4221D183004FF00F0C0CFA03F721
:10072000BC4305FA03FC4CEA040491F803C0BCF195
:10073000280F05D100F1080C08FA0CF8C2F8148053
:1007400091F803C0BCF1480F07D100F1080C4FF03D
:10075000010808FA0CF8C2F81080401C0828CED313
:100760005460BDE8F0814FF6FF7101800221817075
:100770000421C17070470246002093680B400BB102
:10078000012000E0002070470146886880B2704771
:1007900002460020D3680B400BB1012000E000208E
:1007A00070470146C86880B2704701617047416177
:1007B00070470AB1016100E041617047C160704754
:1007C0004FF480320A438261816182618269826969
:1007D000704702460020434B18684FF6807318405C
:1007E00040EA021008433F4B186070473E49C86119
:1007F0007047F0B50A46002300240021002500F0D0
:100800000046B6F1004F02D1364EF16901E0354E97
:100810007168C0F3034583B200F44016B6F5401F7B
:1008200008D121F070612F4E766826F070662D4F4A
:100830007E6012E000F48016B6F5801F06D1032614
:1008400006FA05F4A14341F0706106E0460D360159
:1008500003FA06F6B14341F0706122B1460D36014C
:1008600003FA06F6314300F00046B6F1004F02D11C
:100870001C4EF16101E01B4E7160F0BD30B50022ED
:100880008B071C0F0F2303FA04F2164B08338C104E
:1008900053F824309343134C08348D1044F825301A
:1008A00023468C1053F824308C07240F00FA04F4EC
:1008B00023430C4C08348D1044F8253030BD0A49D0
:1008C000DC3108607047000000080140000C014066
:1008D000001001400014014000180140001C0140BC
:1008E000002001400000014000002042DF48006875
:1008F00040F00100DD49086008464068DC490840D6
:10090000DA49486008460068DA490840D749086073
:100910000846006820F4802008600846406820F4FB
:10092000FE0048604FF41F0088607047CF49096897
:1009300021F48031CD4A11601146096821F48021EB
:100940001160B0F5803F03D0B0F5802F0ED106E0E6
:10095000C649096841F48031C44A116007E0C349BF
:10096000096841F4A021C14A116000E000BF00BF46
:10097000704710B501460022002300204A11012AC9
:1009800002D1BA4C236806E0022A02D1B74C236A8E
:1009900001E0B64C636A01F01F02012494401C4040
:1009A0000CB1012000E0002010BD38B500200090FF
:1009B0000024002500BF3120FFF7DBFF054600982B
:1009C000401C00900098B0F5A06F01D0002DF2D02F
:1009D0003120FFF7CEFF08B1012400E000242046BB
:1009E00038BD01460020A14A106820F0F80040EA16
:1009F000C10010607047A04908607047024600209F
:100A00009A4B586820F47C1042EA01031843974B34
:100A10005860704798490866704701460020934A1D
:100A2000506820F003000843506070478F484068CA
:100A300000F00C007047014600208C4A506820F0FE
:100A4000F00008435060704701460020874A506814
:100A500020F4E06008435060704701460020834A5C
:100A6000506820F4605040EAC1005060704729B1DE
:100A70007E4A527A02437D4B5A7204E07B4A527A94
:100A800082437A4B5A7270477B49D831086070476D
:100A900001460020754A506820F4404008435060E9
:100AA00070470021714A20321170704A82F820107C
:100AB000012802D004280AD104E001216B4A203227
:100AC000117005E00521694A2032117000E000BF75
:100AD00000BF70476949086070476449096A01436B
:100AE000624A11627047654944390860704730B501
:100AF00000210022002400235C4D6D6805F00C01EC
:100B000021B1042905D0082923D105E05C4D0560F9
:100B100022E05B4D05601FE0544D6D6805F47012D6
:100B2000524D6D6805F48034022505EB92421CB9E4
:100B3000544D554305600BE04C4D6D6805F4003590
:100B40001DB1504D5543056002E04D4D55430560C4
:100B500002E04B4D056000BF00BF444D6D6805F0DD
:100B6000F0010909484D6B5C0568DD4045603F4D6B
:100B70006D6805F4E061090A434D6B5C4568DD4032
:100B800085603A4D6D6805F46051C90A3E4D6B5C55
:100B90004568DD40C560354D6D6805F44041890B01
:100BA0003A4D6B5CC568B5FBF3F5056130BD29B105
:100BB0002E4A526902432D4B5A6104E02B4A526976
:100BC00082432A4B5A61704729B1284A92690243ED
:100BD000264B9A6104E0254A92698243234B9A612D
:100BE000704729B1214AD2690243204BDA6104E0FF
:100BF0001E4AD26982431D4BDA61704729B11B4AF4
:100C0000D2680243194BDA6004E0184AD268824382
:100C1000164BDA60704729B1144A12690243134B2C
:100C20001A6104E0114A12698243104B1A6170473D
:100C300012494039086070470F49C86470470B4932
:100C4000C87170470948406A40F08070074948629F
:100C5000704701460020054A92680A400AB1012007
:100C600000E0002070470149887270470010024080
:100C70000000FFF8FFFFF6FE0000424280044242FF
:100C800000127A0000093D0014000020240000201A
:100C900010B50446FB48844209D101218803FFF7BF
:100CA000ADFF00214FF48040FFF7A8FF32E0F64887
:100CB000844209D101214804FFF7ADFF00214FF420
:100CC0000030FFF7A8FF25E0F048844209D1012158
:100CD0008804FFF7A0FF00214FF48020FFF79BFF5F
:100CE00018E0EB48844209D10121C804FFF793FFC3
:100CF00000214FF40020FFF78EFF0BE0E54884420F
:100D000008D101210805FFF786FF00214FF480106C
:100D1000FFF781FF10BD2DE9F04786B005460E466E
:100D20000024A24600BFA1460027B08900B100BF41
:100D30002F462C8A4CF6FF700440F08804432C8226
:100D4000AC894EF6F3100440B088318908437189AC
:100D500008430443AC81AC8A4FF6FF400440B0899D
:100D60000443AC8201A8FFF7C2FEC648874202D105
:100D7000DDF810A001E0DDF80CA0A88900F4004027
:100D800040B10AEBCA0000EB0A1031684900B0FB21
:100D9000F1F807E00AEBCA0000EB0A10316889009D
:100DA000B0FBF1F86420B8FBF0F0040120096421E5
:100DB00001FB1089A88900F4004040B1322000EB0B
:100DC000C900B0FBF1F000F00700044308E0322056
:100DD00000EB09106421B0FBF1F000F00F000443B8
:100DE0002C8106B0BDE8F0874FF416510160002158
:100DF0008180C18001810C21418100218181704766
:100E000010B502460020108A4FF2FF0318400B88ED
:100E10004C8823438C882343CC8823431843108277
:100E200010BD0021018041808180C180704721B1C7
:100E3000828942F40052828104E082894DF6FF7378
:100E40001A4082817047F0B5034600240026002531
:100E5000002040F66A17B94200D100BF1846C1F31E
:100E6000421401F01F06012707FA06F5012C01D1F3
:100E70000C3004E0022C01D1103000E014301AB123
:100E800007682F43076002E00768AF430760F0BDC3
:100E90001AB1838A0B43838202E0838A8B43838265
:100EA0007047028A4FF6F0731A400282028A0A43A0
:100EB0000282704782894FF2FF731A4082818289D1
:100EC0000A438281704721B1828942F00202828105
:100ED00004E082894FF6FD731A4082817047028ACE
:100EE0004FF6DF731A400282028A0A430282704779
:100EF00021B1028A42F48042028204E0028A4BF667
:100F0000FF731A4002827047C1F308028280704763
:100F100001468888C0F308007047818941F00101CB
:100F200081817047028BD2B20283028B42EA012296
:100F300002837047028B02F47F420283028B0A43D2
:100F40000283704721B1828A42F02002828204E04B
:100F5000828A4FF6DF731A408282704721B1828AFB
:100F600042F01002828204E0828A4FF6EF731A4048
:100F70008282704721B1828A42F00802828204E0B4
:100F8000828A4FF6F7731A408282704721B18289B4
:100F900042F40042828103E08289C2F30E02828120
:100FA000704721B1828A42F40062828204E0828A20
:100FB0004FF2FF731A4082827047828A4FF6FB73AA
:100FC0001A408282828A0A438282704721B1828AD1
:100FD00042F00202828204E0828A4FF6FD731A40D8
:100FE0008282704702460020B1F5007F00D100BF29
:100FF00013880B400BB1012000E00020704701F482
:101000000072B2F5007F00D100BFCA430280704772
:1010100070B50246002400230025002040F66A1621
:10102000B14200D100BFC1F3421501F01F030126F8
:1010300006FA03F3012D02D19689334006E0022D12
:1010400002D1168A334001E0968A33400C12012601
:1010500006FA04F41688344013B10CB1012000E004
:10106000002070BD10B50022002340F66A14A14292
:1010700000D100BF0A1201249440A3B2DC430480D3
:1010800010BD00000038014000440040004800400E
:10109000004C00400050004010B50446FE48844219
:1010A00008D10121C014FFF7A9FD0021E014FFF7CA
:1010B000A5FDC4E0B4F1804F08D101210846FFF737
:1010C000AAFD00210120FFF7A6FDB8E0F348844205
:1010D00008D101210220FFF79EFD00210220FFF729
:1010E0009AFDACE0EE48844208D101210420FFF7CC
:1010F00092FD00210420FFF78EFDA0E0E948844224
:1011000008D101210820FFF786FD00210820FFF704
:1011100082FD94E0E448844208D101211020FFF7C9
:101120007AFD00211020FFF776FD88E0DF48844239
:1011300008D101212020FFF76EFD00212020FFF7BC
:101140006AFD7CE0DA48844208D101214014FFF7AF
:1011500055FD00216014FFF751FD70E0D548844231
:1011600009D10121C804FFF749FD00214FF40020F7
:10117000FFF744FD63E0D048844209D1012108050E
:10118000FFF73CFD00214FF48010FFF737FD56E0DC
:10119000CA48844209D101214805FFF72FFD0021EB
:1011A0004FF40010FFF72AFD49E0C548844208D1FA
:1011B00001214020FFF72FFD00214020FFF72BFDEC
:1011C0003DE0C048844208D101218020FFF723FD83
:1011D00000218020FFF71FFD31E0BB48844208D189
:1011E00001218015FFF717FD0021A015FFF713FD62
:1011F00025E0B648844209D101210804FFF7FEFC2E
:1012000000214FF48030FFF7F9FC18E0B048844229
:1012100009D101214804FFF7F1FC00214FF400300F
:10122000FFF7ECFC0BE0AB48844208D101218804B5
:10123000FFF7E4FC00214FF48020FFF7DFFC10BD36
:1012400000220288944B98420ED0994B98420BD0C2
:10125000B0F1804F08D0914B984205D0904B984206
:1012600002D0904B984204D14FF68F731A404B88AE
:101270001A438D4B984207D08C4B984204D04FF6BE
:10128000FF431A40CB881A4302808B8883850B88E2
:101290000385814B98420BD0854B984208D08B4BED
:1012A000984205D08A4B984202D08A4B984201D18D
:1012B0000B7A038601238382704770B500240022D5
:1012C0000023058C4FF6FE7635400584028C83881A
:1012D000048B4FF68F752C40B51E2C400D882C4387
:1012E000751E2A400D892A434D882A436A4DA8421B
:1012F0000BD06F4DA84208D0744DA84205D0744D54
:10130000A84202D0734DA84213D14FF6F7752A4078
:101310004D892A434FF6FB752A408D882A434FF6A4
:10132000FF652B404FF6FF552B408D892B43CD8910
:101330002B4383800483CD888586028470BD70B57D
:10134000002400220023058C4FF6EF7635400584FB
:10135000028C8388048B48F6FF752C404FF6FF45BE
:101360002C400D884FF6FF7606EA05252C434FF6F4
:10137000DF752A400D8906EA05152A434D8806EADD
:1013800005152A43444DA84202D0494DA8421DD11B
:101390004FF67F752A404D894FF6FF7606EA051510
:1013A0002A434FF6BF752A408D8806EA05152A4361
:1013B0004FF6FF352B404FF2FF752B408D8906EA23
:1013C00085052B43CD8906EA85052B43838004835D
:1013D000CD880587028470BD70B5002400220023EB
:1013E000058C4FF6FF6635400584028C8388848B1C
:1013F0004FF68F752C404FF6FC752C400D882C4312
:101400004FF6FF552A400D894FF6FF7606EA05256F
:101410002A434D8806EA05252A431F4DA84202D0DB
:10142000234DA8421DD14FF2FF752A404D894FF63A
:10143000FF7606EA05252A434FF6FF352A408D88B8
:1014400006EA05252A434EF6FF752B404DF6FF753B
:101450002B408D8906EA05152B43CD8906EA051533
:101460002B4383808483CD888587028470BD70B5CB
:10147000002200230024058C4EF6FF7635400584BB
:10148000038C8488828B48F6FF752A404FF6FF450F
:101490002A400D8820E00000002C0140000400409C
:1014A00000080040000C0040001000400014004004
:1014B00000340140004C0140005001400054014004
:1014C00000180040001C0040002000400040014087
:1014D00000440140004801404FF6FF7606EA05252A
:1014E0002A434DF6FF752B400D8906EA05352B433F
:1014F0004D8806EA05352B43FA4DA84202D0FA4D35
:10150000A84208D14BF6FF752C408D894FF6FF7627
:1015100006EA85152C4384808283CD88A0F840504C
:10152000038470BD828B4FF2FF331A408283828B1B
:101530004FF6FF7303EA01231A4382837047F0B525
:101540000C461546002200210026078C4EF6FF7C33
:1015500007EA0C070784828B018C4FF6FF7707EAB6
:10156000043640F6FF473A404FF6FF7707EA052773
:101570003A434FF6FF7707EA03373A43D94FB84269
:101580000ED0D94FB8420BD0B0F1804F08D0D74F12
:10159000B84205D0D64FB84202D0D64FB84206D195
:1015A0004DF6FF77394046F48057394305E047F65A
:1015B000FF57394044F48057394382830184F0BD9A
:1015C000828B4FF6F3731A408283828B0A438283A5
:1015D0007047F0B50C461546002200210026078C06
:1015E0004FF6FF6C07EA0C070784828B018C4FF6DD
:1015F000FF7707EA04264FF60C773A404FF6FF775D
:1016000007EA03172F433A43B64FB8420ED0B64FFE
:10161000B8420BD0B0F1804F08D0B44FB84205D0DB
:10162000B34FB84202D0B34FB84206D14FF6FF577E
:10163000394046F48077394305E04FF2FF5739408F
:1016400044F48077394382830184F0BD028B4FF2EA
:10165000FF331A400283028B4FF6FF7303EA012324
:101660001A4302837047F0B50C461546002200214C
:101670000026078C4FF6EF7C07EA0C070784028BE5
:10168000018C4FF6FF7707EA041640F6FF473A4011
:101690004FF6FF7707EA03373A434FF6FF7707EA3B
:1016A00005273A438F4FB8420ED08F4FB8420BD028
:1016B000B0F1804F08D08D4FB84205D08C4FB84262
:1016C00002D08C4FB84206D14FF6DF77394046F052
:1016D0001007394305E04FF65F77394044F01007B3
:1016E000394302830184F0BD028B4FF6F3731A4035
:1016F0000283028B0A4302837047F0B50C461546FD
:1017000000220021068C4FF6FE773E400684028BB5
:10171000018C4FF60C7632407E1C06EA03162E43EF
:101720003243704EB0420ED06F4EB0420BD0B0F18B
:10173000804F08D06D4EB04205D06D4EB04202D001
:101740006C4EB04206D14FF6FD76314044F00106B2
:10175000314305E04FF6F576314044F00106314360
:1017600002830184F0BD70B505460C465D48854294
:101770000ED05D4885420BD0B5F1804F08D05B4854
:10178000854205D05A48854202D05A48854200D148
:1017900000E000BF208850B92389A28861882846CC
:1017A000FFF7ABFFE1882846FFF79EFF25E0208882
:1017B00004280AD12389A28861882846FFF753FFAD
:1017C000E1882846FFF742FF17E0208808280AD161
:1017D0002389A28861882846FFF7FBFEE188284616
:1017E000FFF7EEFE09E02389A28861882846FFF70B
:1017F000A6FEE1882846FFF795FE70BD2DE9F04171
:1018000005460C4600260127608808B9022600E03C
:101810000026A088012801D1022700E001272088A6
:10182000A0B92389A28861882846FFF766FFE1886E
:101830002846FFF759FF23893A4631462846FFF7E5
:1018400012FFE1882846FFF701FF13E02389A288F1
:1018500061882846FFF707FFE1882846FFF7F6FE74
:1018600023893A4631462846FFF747FFE188284654
:10187000FFF73AFFBDE8F0810A884B881A438B884E
:101880001A43CB881A430B891A434B891A438B8915
:101890001A43A0F8442070474FF6FF718180002161
:1018A0000180C18041800172704700210180418028
:1018B0008180C180018141818181C1817047002186
:1018C00001804180012181800021C1800181704718
:1018D0000021018041808180C1800181418181811D
:1018E00070470000002C014000340140000400401B
:1018F00000080040000C004021B1028842F00102C3
:10190000028004E002884FF6FE731A40028070479E
:1019100031B1B0F8442042F40042A0F8442005E080
:10192000B0F84420C2F30E02A0F8442070471AB168
:1019300083890B43838102E083898B4383817047D2
:101940008182704741EA0203A0F8483070471AB11B
:1019500083890B43838102E083898B4383817047B2
:1019600001894FF6F8721140018170470A46002143
:1019700001894FF68F73194011430181704730B5CB
:1019800004460D4629462046FFF7F0FF208940F027
:101990000700208130BD2DE9F04104460D46164672
:1019A0001F46602D06D13B46012231462046FFF7F7
:1019B0005AFE05E03B46012231462046FFF79DFED8
:1019C00029462046FFF7D2FF208940F007002081FA
:1019D000BDE8F08130B50C4600210189C9B24FF64F
:1019E000FF7505EA0325154325432943018130BDD1
:1019F0002DE9F04105460E46174698460024434619
:101A00003A4631462846FFF7E5FF2C894FF6F87035
:101A1000044044F007044FF68F70044044F0700413
:101A20002C81BDE8F081F0B504460D4616461F46F0
:101A30003B46324629462046FFF7CCFF208940F43A
:101A400080402081F0BD0185828270470A460021D6
:101A500001884FF68F731940114301807047F0B52C
:101A60000C4615461E460021002200230189028BE8
:101A7000038C4FF6F877394021434FF6FC473A4044
:101A800040F201173A434FF6DD773B404FF6FF77C0
:101A900007EA06172F433B43018102830384F0BD0D
:101AA0000A460021018B4FF68F73194011430183C1
:101AB00070470A460021018B48F6FF7319404FF624
:101AC000FF7303EA02231943018370470A4600218A
:101AD000818B4FF68F7319401143818370470A46FB
:101AE0000021818B48F6FF7319404FF6FF7303EA1C
:101AF000022319438183704721B1028842F080029A
:101B0000028004E002884FF67F731A40028070471B
:101B100021B1828842F00402828004E082884FF67C
:101B2000FB731A408280704721B1828842F008021C
:101B3000828004E082884FF6F7731A4082807047F3
:101B400021B1828842F00102828004E082884FF64F
:101B5000FE731A40828070470A460021018B4FF6BF
:101B6000F77319401143018370470A460021018B26
:101B70004FF2FF7319404FF6FF7303EA0223194334
:101B8000018370470A460021818B4FF6F773194095
:101B90001143818370470A460021818B4FF2FF7306
:101BA00019404FF6FF7303EA0223194381837047FC
:101BB0000A460021018B4FF6FB7319401143018344
:101BC00070470A460021018B4FF6FF3319404FF64C
:101BD000FF7303EA02231943018370470A46002179
:101BE000818B4FF6FB7319401143818370470A467E
:101BF0000021818B4FF6FF3319404FF6FF7303EA44
:101C000002231943818370470A460021018B4FF656
:101C10007F7319401143018370470A460021018BED
:101C2000C1F30E014FF6FF7303EA02231943018348
:101C300070470A460021818B4FF67F73194011438C
:101C4000818370470A460021818BC1F30E014FF654
:101C5000FF7303EA02231943818370470A46002178
:101C6000018C4FF6FD7319401143018470470A46F9
:101C70000021018C4FF6F77319401143018470471E
:101C80000A460021018C4FF6DF7319404FF6FF73AF
:101C900003EA02131943018470470A460021018CAC
:101CA0004FF67F7319404FF6FF7303EA021319438F
:101CB000018470470A460021018C4FF6FF531940FA
:101CC0004FF6FF7303EA02231943018470470A4663
:101CD0000021018C4FF2FF7319404FF6FF7303EAA6
:101CE00002231943018470470A460021018C4DF6F6
:101CF000FF7319404FF6FF7303EA0233194301845F
:101D0000704730B5002301248C40A3B2048C9C435F
:101D10000484048C02FA01F5ADB22C43048430BD76
:101D200030B5002304248C40A3B2048C9C4304846B
:101D3000048C02FA01F5ADB22C43048430BD70B5B9
:101D40000346002000241846183001258D40ACB20F
:101D50001D8CA5431D8409B1082909D100EB610040
:101D6000056825F0700505600568154305600EE0FF
:101D70000D1FC5F34E052844056825F4E0450560B0
:101D800005684FF6FF7606EA02263543056070BD0A
:101D900021B1028842F00202028004E002884FF67C
:101DA000FD731A400280704721B1028842F004029C
:101DB000028004E002884FF6FB731A4002807047ED
:101DC00021B1828842F08002828004E082884FF64E
:101DD0007F731A408280704702884FF6F7731A406B
:101DE000028002880A430280704782884FF68F7310
:101DF0001A40828082880A438280704702894FF6A7
:101E0000F8731A40028102890A43028170470289ED
:101E10004FF67F731A40028102890A43028170479C
:101E2000818470478185704781867047018770473C
:101E300081877047A0F84010704702884FF6FF4333
:101E40001A40028002880A43028070470146888E49
:101E500070470146088F70470146888F70470146DA
:101E6000B1F8400070470146888C70470146088DE4
:101E7000704702460020138A0B400BB1012000E09E
:101E800000207047CA430282704730B502460020E6
:101E900000230024158A05EA0103958905EA010457
:101EA00013B10CB1012000E0002030BDCA43028212
:101EB0007047000001460020FE4A106800F038001C
:101EC000084310607047FB49096821F00801F94A8E
:101ED000116011460968014311607047F5490968AE
:101EE00021F01001F34A11601146096801431160A5
:101EF0007047F148EF494860F04848607047EE4845
:101F0000EC494860ED4848607047EA48006940F095
:101F10008000E84908617047E648006940F08000A9
:101F2000E449086170470420E249C96801F00101F1
:101F300009B101200EE0DF49C96801F0040109B1CF
:101F4000022007E0DB49C96801F0100109B1032054
:101F500000E00420704700B502460423FFF7E3FFCA
:101F6000034603E0FFF7DFFF0346521E012B01D1BA
:101F7000002AF7D102B90523184600BD30B5044642
:101F800004254FF43020FFF7E6FF0546042D17D156
:101F9000C848006940F00200C6490861084644612B
:101FA000006940F0400008614FF43020FFF7D3FF94
:101FB0000546C048006941F6FD710840BD49086109
:101FC000284630BD10B504244FF43020FFF7C3FF7E
:101FD0000446042C16D1B748006940F00400B54906
:101FE00008610846006940F0400008614FF4302065
:101FF000FFF7B1FF0446AF48006941F6FB710840A6
:10200000AC490861204610BD00B502460423FFF725
:102010008AFF034603E0FFF786FF0346521E012BAB
:1020200001D1002AF7D102B90523184600BD10B529
:1020300004244FF43020FFF7E7FF0446042C16D1A8
:102040009C48006940F004009A490861084600690C
:1020500040F0400008614FF43020FFF7D5FF044600
:102060009448006941F6FB71084092490861204696
:1020700010BD00208F49C96901F0020109B101209A
:1020800000E00020704730B5A5250424FFF7F1FFDC
:1020900000B100254FF43020FFF75DFF0446042C0B
:1020A0003AD1854883498860844888600846006939
:1020B00040F0200008610846006940F040000861D7
:1020C0004FF43020FFF747FF0446042C1BD179481A
:1020D000006941F6DF7108407649086108460069E9
:1020E00040F01000086176480580E002FFF733FFFA
:1020F0000446052C10D06F48006941F6EF71084086
:102100006C49086108E0052C06D06A48006941F670
:10211000EF71084067490861204630BD78B5064632
:102120000C46042500200090E802FFF714FF054646
:10213000042D24D15F48006940F001005D49086129
:102140003480E802FFF707FF0546042D10D1B01CCC
:102150000090200C00990880E802FFF7FCFE05467D
:102160005448006941F6FE7108405249086106E092
:102170005048006941F6FE7108404E490861284602
:1021800078BD70B504460D460426F002FFF7E3FE65
:102190000646042E11D14748006940F00100454928
:1021A00008612580F002FFF7D6FE06464148006927
:1021B00041F6FE7108403F490861304670BD70B578
:1021C00005460E460424E002FFF7C5FE0446042C33
:1021D00017D139483749886038488860084600690F
:1021E00040F0100008612E80E002FFF7B4FE0446C4
:1021F000052C06D02F48006941F6EF7108402D49A3
:102200000861204670BD2DE9F04304464FF6FF7685
:102210003746B046B1460425E443E6B2C4F3072787
:10222000C4F307484FEA1469E802FFF794FE054635
:10223000042D49D120481F498860204888600846FD
:10224000006940F010000861FF2E06D01C480830DD
:102250000680E802FFF77FFE0546042D08D1FF2F18
:1022600006D017480A300780E802FFF774FE0546DB
:10227000042D0AD1B8F1FF0F07D011480C30A0F897
:102280000080E802FFF767FE0546042D0AD1B9F188
:10229000FF0F07D00A480E30A0F80090E802FFF7C1
:1022A0005AFE0546052D0FD00248006941F6EF7130
:1022B000084007E00020024023016745AB89EFCDCD
:1022C00000F8FF1F664908612846BDE8F08330B575
:1022D000054604244FF43020FFF73DFE0446042C4D
:1022E00041D160485E4988605F488860084600695F
:1022F00040F0200008610846006940F04000086195
:102300004FF43020FFF727FE0446042C22D1544816
:10231000006941F6DF7108405149086108460069CB
:1023200040F0100008611DB100205049088002E013
:10233000A5204E4908804FF43020FFF70CFE0446DC
:10234000052C10D04648006941F6EF710840444919
:10235000086108E0052C06D04148006941F6DF71AC
:1023600008403F490861204630BDF0B505460E469D
:10237000174604243B483A4988603B488860E0029D
:10238000FFF7E9FD0446042C19D13548006940F0F7
:1023900010003349086147F0F800304328433349BF
:1023A000891C0880E002FFF7D6FD0446052C06D004
:1023B0002B48006941F6EF71084029490861204621
:1023C000F0BD2748C069800870472548006A7047FB
:1023D00000202349096801F0200109B1012000E033
:1023E0000020704729B11E4A126902431C4B1A6132
:1023F00004E01B4A12698243194B1A617047014677
:102400000020012908D1164AD26902F001020AB15E
:10241000012008E0002006E0114AD2680A400AB113
:10242000012000E0002070470D49C860704704207B
:102430000B49C96801F0010109B101200EE008490A
:10244000C96801F0040109B1022007E00449C96824
:1024500001F0100109B1032000E0042070470000E2
:102460000020024023016745AB89EFCD00F8FF1F34
:102470000E49086070470D49486070470B498860F5
:1024800070474AF6AA200949086070474CF6CC40CC
:1024900006490860704701460020044AD2680A4095
:1024A0000AB1012000E00020704700000030004029
:1024B00010B502F004FB10BD10B502F045FB10BDD5
:1024C00010B50446204604F089F810BD10B53E480A
:1024D0000078012805D102F09FFA02F0E0FB02F03B
:1024E000B6FA10BD10B56FF00400FEF732F83748A9
:1024F00000683749B0FBF1F036490870334800688E
:102500003349B0FBF1F441F28830444305203249AD
:1025100008804FF0E020006940F002004FF0E02119
:10252000086108464461006940F00100086110BD7F
:102530002DE9F047074600264FF0E020D0F8149030
:102540002448007807FB00F800BFFFF7B1FF4FF009
:10255000E020856911E04FF0E0208469AC420CD0A6
:10256000AC4202D2281B064403E0A9EB0400284435
:1025700006442546464500D300E0ECE700BFFFF7E0
:102580009BFFBDE8F08770B504460F480078A0B106
:102590001248007888B910480088844206DB0E484B
:1025A000008894FBF0F52846FFF78AFF0A48008868
:1025B00094FBF0F100FB114084B24FF47A7104FBFC
:1025C00001F0FFF7B5FF70BD65020020000000209C
:1025D00000127A00280000202A0000205D0200205E
:1025E00008B501210420FEF7EFFA0820ADF800003D
:1025F00010208DF8030003208DF8020069461B4867
:10260000FEF726F808211948FEF7D1F8012110201D
:10261000FEF7DAFA4FF40050ADF8000010208DF804
:10262000030003208DF8020069461148FEF710F8F8
:102630004FF400510E48FEF7B8F801210820FEF7CC
:10264000C3FA4FF44050ADF8000010208DF803009D
:1026500003208DF8020069460648FDF7F9FF4FF4A4
:1026600040510448FEF7A1F808BD000000080140F1
:1026700000100140000C014010B586B00446012155
:1026800044F20400FEF7A0FA4FF40070ADF8140015
:1026900003208DF8160018208DF8170005A9F148C1
:1026A000FDF7D6FF4FF48060ADF8140004208DF8DC
:1026B000170005A9EB48FDF7CBFF25208DF800009A
:1026C00003208DF801008DF8020001208DF8030031
:1026D0006846FDF7F4FE01940020ADF80800ADF85F
:1026E0000A00ADF80C00ADF810000C20ADF80E009B
:1026F00001A9DD48FEF70FFB012240F22551DA481F
:10270000FEF7A1FB0121D848FEF791FB06B010BDF2
:1027100010B504462146D448FEF7F6FB00BF402121
:10272000D148FEF75FFC0028F9D010BD2DE9F0413B
:1027300006460F469046002442463046394600F091
:1027400056FA054600BF04E0285DFFF7E1FF601C74
:10275000C4B2285D0028F7D1BDE8F08170B5064607
:102760000024304600F01BFA054600BF04E0285D57
:10277000FFF7CEFF601CC4B2285D0028F7D170BD02
:1027800070B50446002500BF04E0605DFFF7C0FFA0
:10279000681CC5B2605D0028F7D170BD70B50246F7
:1027A0000B460025002100244FF6FF7000BF12E009
:1027B000555C684000240AE000F0010626B1401094
:1027C0004AF20106704000E04010661CB4B2082CCA
:1027D000F2DB4E1CB1B29942EADB70BD2DE9F0414B
:1027E000002500240026172755222146641C9F48F7
:1027F0004254AA222146641C42542146641C475478
:102800009B48008802122146641C9848425498480C
:1028100002782146641C954842549648008802126A
:102820002146641C91484254924802782146641C17
:102830008E48425429466D1C8F48425C2046611CDC
:10284000CCB28A490A5429466D1C8B48425C20460A
:10285000611CCCB285490A5429466D1C8648425CED
:102860002046611CCCB281490A5429466D1C82481D
:10287000425C2046611CCCB27C490A5429466D1C3E
:102880007D48425C2046611CCCB278490A542946F6
:102890006D1C7948425C2046611CCCB273490A54D5
:1028A00029466D1C7448425C2046611CCCB26F49BD
:1028B0000A542846691CCDB26F490A5C2046611C47
:1028C000CCB26A490A542846691CCDB26A490A5CEE
:1028D0002146601CC4B2654842542846691CCDB2EA
:1028E00065490A5C2046611CCCB260490A542846FE
:1028F000691CCDB260490A5C2046611CCCB25B49C0
:102900000A542846691CCDB25B490A5C2146601C0A
:10291000C4B2564842542846691CCDB256490A5C96
:102920002046611CCCB251490A542846691CCDB2DC
:1029300051490A5C2046611CCCB24C490A542846D5
:10294000691CCDB24C490A5C2046611CCCB2474997
:102950000A542846691CCDB247490A5C2046611CCE
:10296000CCB242490A5439464048FFF717FF0646A1
:1029700032122146601CC4B23C4842542046611CBD
:10298000CCB23A490E54002505E03849485DFFF7BE
:10299000BFFE681CC5B2802DF7DBBDE8F0812DE9D4
:1029A000F041002400260027002540F225512E4842
:1029B000FEF72EFB002852D02B48FEF7A9FAC1B231
:1029C0002E4802780078401C2C4B18702C488154FB
:1029D00018460078802842DB00201946087000BFA6
:1029E0000DE02748005D552807D12549601C085C8B
:1029F000AA2802D1A01C0D5C03E0601CC4B2802C8C
:102A0000EFDB00BF6019802829DA1D490819294623
:102A1000FFF7C4FE0746601919490E5C4FF6FF70B8
:102A200000EA06266019401C085C0643B74216D12E
:102A3000E01CC4B22046611CCCB21149085C1149AB
:102A400008702046611CCCB20D49085C0E49087024
:102A50002046611CCCB20A49085C0C490870BDE8EC
:102A6000F081000000080140003801408802002089
:102A70002E00002030000020281200202C00002012
:102A80000803002032000020330000203400002022
:102A900010B50A46002100BF01E04B1CD9B2435CCF
:102AA000002BFAD1425400244B1CC45410BD002109
:102AB00000BF01E04A1CD1B2425C002AFAD10023D7
:102AC0004A1E83547047002100BF03E00022425495
:102AD0004A1CD1B2425C002AF8D17047014600205E
:102AE00000BF01E0421CD0B20A5C002AFAD1704754
:102AF00070B504460D4600232046FFF7EFFF06465B
:102B0000002304E0E85CF1186054581CC3B2E85C90
:102B10000028F7D1F118605470BD70B505460C4619
:102B2000002300262846FFF7D9FF03462046FFF77B
:102B3000D5FF06469E4201D0002070BD05E0E85C4E
:102B4000E15C884201D00020F7E7181EA3F10101E3
:102B5000CBB2F4D10120F0E730B5034600220024C7
:102B6000012100BF09019942FCD900BF0909B3FB4B
:102B7000F1F000F00F040A2C04DA04F13000CA4D21
:102B8000A85403E004F13700C74DA854501CC2B24A
:102B90000129EBD80020C44DA854284630BD30B5DB
:102BA000014600230122002905DA49422D20BF4CAD
:102BB000E054581CC3B200BF02EB820042008A42BC
:102BC000FADD00BF0A2092FBF0F291FBF2F00A243A
:102BD00090FBF4F504FB15003030B44CE054581C65
:102BE000C3B2012AEEDC0020E054204630BD2DE9BE
:102BF000F04F85B005460E4692460024A3464FF09E
:102C000001090120049000BF0022134628463146E6
:102C100004F06AF906D286F000462D20A449085532
:102C2000601CC4B22846314604F004F98346584675
:102C300004F02FF92A463346CDE9020104F08EFA5A
:102C40000746884600BF09EB89004FEA4009D9458D
:102C5000F9DD00BF0A2099FBF0F99BFBF9F00A218E
:102C600090FBF1F201FB1200303091490855601CD5
:102C7000C4B2B9F1010FEDDCBAF1000F2CDD2E204A
:102C8000085500BF601CC4B2AAF1010000F0FF0AA1
:102C9000049800EB800040000490049804F0F9F8D8
:102CA0003A464346CDE9000104F05AF9CDE9020164
:102CB00004F0C0F80A2190FBF1F201FB1200303061
:102CC0007B490855BAF1000FDCD10021601CC0B26D
:102CD0000446774A115402E00020754908557448AB
:102CE00005B0BDE8F08F10B5014600220123002495
:102CF000087808B9002010BD08782D2808D0087879
:102D0000302802DB0878392802DD4FF0AA30F2E7DC
:102D100008782D2801D1012000E00020024604E0BF
:102D200003EB83004300501CC2B2885C0028F7D13B
:102D300008782D2801D1012000E00020024608E09B
:102D40000A2093FBF0F3885C303800FB0344501CEE
:102D5000C2B2885C0028F3D108782D2801D16042E6
:102D600000E0204604462046C5E72DE9FF5F044603
:102D700000274FF00108B946DFF838A100200546CA
:102D800006468346207820B90020014604B0BDE8FD
:102D9000F09F20782D2808D02078302802DB20787A
:102DA000392802DD00200146F0E7012718E0E05D48
:102DB000302802DBE05D392810DDE05D2E2804D1EB
:102DC0000BF1010000F0FF0B02E000200146DDE7FF
:102DD000BBF1010F02DD00200146D7E7781CC7B226
:102DE000E05D0028E3D120782D2801D1012000E00A
:102DF0000020074605E008EB88004FEA4008781CF1
:102E0000C7B2E05D2E28F6D120782D2801D101200F
:102E100000E00020074612E00A2098FBF0F8E15D90
:102E2000303901FB08F004F034F82A463346CDE986
:102E3000020103F0F3FD05460E46781CC7B2E05DC3
:102E40002E28E9D1781CC7B21CE000221A4B484654
:102E5000514603F097FE81468A46E15DA1F13000BC
:102E600004F017F84A465346CDE9000104F078F81B
:102E70002A463346CDE9020103F0D0FD05460E4651
:102E8000781CC7B2E05D0028DFD120782D2803D15F
:102E9000284686F0004101E02846314605460E46A8
:102EA0002846314672E70000880300209C0300207A
:102EB000B00300200000F03F0000244008B50121CD
:102EC0000820FDF781FEC020ADF8000010208DF82D
:102ED000030003208DF802006946F948FDF7B8FBAE
:102EE0000120F8490860F849C1F89C0108BD08B5FF
:102EF0008020ADF8000010208DF8030003208DF82D
:102F000002006946EE48FDF7A3FB08BD08B5802026
:102F1000ADF8000001208DF8020004208DF80300B8
:102F20006946E748FDF794FB08BD10B5FFF7DFFFE2
:102F30000120E449091D0860E349C1F89801002017
:102F4000E049091D0860E049C1F8980110BD10B5BD
:102F5000FFF7CDFF0020DB490860DB49C1F89C0189
:102F60000120D8490860D849C1F89C0110BD10B5AE
:102F70000024FFF7CBFF0120D249091D0860D24988
:102F8000C1F8980107E0601CC4B2FA2C03DDFFF71A
:102F9000DEFF012010BDCB487C3800680028F2D14C
:102FA000C849086000BFF5E710B50020C5490860B2
:102FB000FFF79DFF0020C449C1F89C010120C149D1
:102FC00008600020C049C1F8980110BD10B500206C
:102FD000BC490860FFF78BFF0120BB49C1F89C0189
:102FE000B84908600020B849C1F8980110BD70B513
:102FF0000446FFF77CFF0020B249086000250EE080
:10300000E009B049091D08606006040E0120AE49C0
:10301000C1F898010020AB490860681CC5B2082DB2
:10302000EEDB70BD70B505460024FFF76FFF00268C
:1030300010E00020A34908600120A349C1F89801CD
:103040006006040E9F487C38006808B1601CC4B25A
:10305000701CC6B2082EECDB15B9FFF7B7FF01E014
:10306000FFF7A2FF204670BD70B505460C4672B64C
:10307000FFF75BFF7820FFF7BAFFFFF778FF2846DE
:10308000FFF7B5FFFFF773FF2046FFF7B0FFFFF72D
:103090006EFFFFF75CFF62B670BD10B504462146B7
:1030A0000020FFF7E1FF10BD10B504462146402087
:1030B000FFF7DAFF10BD10B5FFF700FF6420FFF740
:1030C00062FAAE20FFF7E9FF2020FFF7E6FF1020AD
:1030D000FFF7E3FFB020FFF7E0FFC820FFF7DDFFB9
:1030E0000020FFF7DAFF1020FFF7D7FF4020FFF79F
:1030F000D4FF8120FFF7D1FFFF20FFF7CEFFA120F3
:10310000FFF7CBFFA620FFF7C8FFA820FFF7C5FFFA
:103110003F20FFF7C2FFA420FFF7BFFFD320FFF738
:10312000BCFF0020FFF7B9FFD520FFF7B6FFF02066
:10313000FFF7B3FFD920FFF7B0FF2220FFF7ADFF65
:10314000DA20FFF7AAFF1220FFF7A7FFDB20FFF727
:10315000A4FF2020FFF7A1FF8D20FFF79EFF142082
:10316000FFF79BFFAF20FFF798FF10BD70B5044637
:103170000D4605F1B001C8B2FFF78FFF102141EAFB
:103180001410FFF78AFF04F00F0141F00100FFF770
:1031900084FF70BD70B50646002415E004F1B0014F
:1031A000C8B2FFF77AFF0020FFF777FF1020FFF784
:1031B00074FF002504E03046FFF776FF681CC5B2B7
:1031C000802DF8DB601CC4B2082CE7DB70BD10B5A5
:1031D000002013E0002107E0202200EB00133B4C0D
:1031E00023445A544A1CD1B21029F5DB002200EBCB
:1031F0000013364C23445A54421CD0B20428E9DB55
:1032000010BD10B58D20FFF748FF1420FFF745FFD4
:10321000AF20FFF742FF10BD10B58D20FFF73DFF37
:103220001020FFF73AFFAE20FFF737FF10BD2DE962
:10323000F0470646894617469A464FF00008002494
:103240000025BAF1010F03D0BAF1020F68D125E0D1
:1032500020E0785D203800F0FF087E2E04DD002697
:1032600009F1010000F0FF0949463046FFF77EFFF3
:10327000002409E008EB4801154A02EB4101085D12
:10328000FFF712FF601CC4B2062CF3DBB01DC6B200
:10329000681CC5B2785D0028DBD141E03CE0785D78
:1032A000203800F0FF08782E04DD002609F1010027
:1032B00000F0FF0949463046FFF758FF002411E0AF
:1032C000000C01409881214200802142C40300206B
:1032D000C075000804EB0811914A505CFFF7E4FE4A
:1032E000601CC4B2082CF5DB09F10100C1B2304604
:1032F000FFF73CFF002408E004EB08110831884A7E
:10330000505CFFF7D1FE601CC4B2082CF4DB06F160
:103310000800C6B2681CC5B2785D0028BFD100BFE6
:1033200000BFBDE8F087F0B504460020FBB100BF48
:1033300001E0451CE8B2155C002DFAD1102800DB35
:103340001020054600EBD5767610C6F10806F4B2DB
:10335000002008E0155C01EB0116724F3E4427186F
:10336000F555451CE8B2155C002DF3D112E00020A4
:103370000CE02518102D00DB0BE0155C01EB0116AD
:10338000684F3E442718F555451CE8B2155C002DE2
:10339000EFD100BFF0BD10B5002400BF0DE004EB7D
:1033A0000410604BC218012000EB4400C1B202239C
:1033B0000020FFF73CFF601CC4B2032CEFDB10BD04
:1033C00010B5002400BF0BE004EB0410554BC218ED
:1033D0006006010E02230020FFF729FF601CC4B223
:1033E000042CF1DB10BD2DE9F04180460E46174656
:1033F00000247D0131464046FFF7B8FE00BF08E0DB
:103400004949495DC943C8B2FFF74EFE6D1C601CB7
:10341000C4B2102CF4DB701CC1B24046FFF7A6FE0C
:10342000002408E04049495DC943C8B2FFF73CFEAB
:103430006D1C601CC4B2102CF4DBBDE8F0812DE9DA
:10344000F05F06460F4690461C46DDF828A04FF078
:10345000000BE11704EB5171C910A4EBC10131B9A4
:103460002046E11704EB5171C1F3C70506E0204681
:10347000E11704EB5171C910491CCDB23D4614E06F
:1034800029463046FFF772FEB1460AE059460BF175
:10349000010B1AF80100FFF707FE09F1010000F027
:1034A000FF09C145F2DB681CC5B2A542E8DBBDE8F7
:1034B000F09F2DE9F04706468846174699460025B5
:1034C000002400BF27E006EB0411C8B24146FFF715
:1034D0004DFE002507E0202101FB0451785CFFF739
:1034E000E3FD681CC5B2102DF5DB08F10102D1B275
:1034F00006EB0412D0B2FFF739FE102507E02021B9
:1035000001FB0451785CFFF7CFFD681CC5B2202D8C
:10351000F5DB601CC4B24C45D5DBBDE8F08700008C
:10352000E8770008C40300202075000810B50121C9
:103530000420FDF749FB10BD08B54FF48070ADF8CD
:10354000000010208DF8030003208DF8020069466A
:103550007C48FDF77DF84FF480717A48FDF725F936
:1035600008BD08B54FF48070ADF8000004208DF858
:10357000030069467348FDF76BF808BD10B50024D9
:10358000FFF7DAFF4FF480716E48FDF710F9142051
:10359000FEF7F9FF4FF480716A48FDF706F9FFF76F
:1035A000E0FF4FF4704400BF6748006820B1201E60
:1035B00004F101018CB2F7D14FF4704400BF6248AE
:1035C000006820B9201E04F101018CB2F7D14FF43C
:1035D000704400BF5C48006820B1201E04F1010166
:1035E0008CB2F7D110BD70B500260025002400BFB5
:1035F00021E04FF4704600BF5348006820B9301EE8
:1036000006F101018EB2F7D11E20FEF791FF600690
:10361000040E4D48006808B144F001044FF47046B0
:1036200000BF4948006820B1301E06F101018EB28A
:10363000F7D1681CC5B2082DDBDB204670BD2DE933
:10364000F04F89B005460E460024A14600200790A1
:1036500008900690FFF792FF00BF05E0FFF7C3FF59
:1036600007A90855601CC4B2052CF7DBFFF764FFFF
:103670004FF480713348FDF798F8002406E007A85E
:10368000005D484400F0FF09601CC4B2042CF6DB66
:103690009DF82000484503D031462846FFF7CFFF6C
:1036A0009DF81D0003F00CFC07460022274B03F099
:1036B00057FC0022264BCDE9000103F063FACDE967
:1036C00004019DF81C0003F0FBFBCDE90201DDE9DC
:1036D000042303F0A3F9824603F06EF906901D4916
:1036E000069803F051FE074603F02EFE30809DF849
:1036F0001F0003F0E5FB0022144BCDE9000103F0AD
:103700002FFC82460022124B03F03CFA0746884603
:103710009DF81E0003F0D4FB3A464346CDE9020172
:1037200003F07CF9CDE9040103F046F9069009495C
:10373000069803F029FE074603F006FE288009B02C
:10374000BDE8F08F00080140200121420000F03F59
:1037500000002440000020417FB505460C460121B1
:103760000846FDF73EFAADF80850ADF804400020D9
:10377000ADF80A00ADF8060001A94FF08040FDF752
:103780005FFD012211469007FEF7D1F81C208DF84D
:10379000000000208DF8010003208DF802000120B8
:1037A0008DF803006846FCF78AFE01218807FEF7C2
:1037B000A3F87FBD10B501218807FEF766FB18B19D
:1037C00001218807FEF772FB10BD000030B589B0FB
:1037D00005460C4601210220FDF703FA01210920CC
:1037E000FDF7F2F90220ADF8200018208DF8230033
:1037F00003208DF8220008A91348FCF729FFADF833
:103800001850ADF814400020ADF81A00ADF81600BD
:1038100005A90E48FDF714FD6020ADF80400012055
:10382000ADF806000020ADF80C0001A90748FDF72F
:103830001EFE08210548FEF7AEF901210348FEF7F8
:103840005BF809B030BD0000000C014000040040EE
:1038500005E0FEF716FE4FF47A70FEF794FEF8E7E7
:103860000DE00020FE4908603220FEF78CFE0120AA
:10387000FC49C1F8B4014FF47A70FEF784FEF0E71A
:1038800086B0142101A803F032F843E1FFF79FFC52
:10389000F548007805287CD10120F4490860F449F6
:1038A000C1F8B40101A8FFF70EF9F2A101A8FFF7D2
:1038B0001FF9F148008803F003FB05460022EF4B97
:1038C00003F060F907460122FFF791F9044621460B
:1038D00001A8FFF70DF9EAA101A8FFF709F90023F4
:1038E00001AA19460220FFF71EFD01A8FFF7EBF819
:1038F000E6A101A8FFF7FCF8E548008803F0E0FA2C
:1039000005460022DD4B03F03DF907460122FFF793
:103910006EF90446214601A8FFF7EAF8DDA101A8E7
:10392000FFF7E6F8002301AA01210220FFF7FBFCC4
:1039300001A8FFF7C8F8D9480078FFF730F9044626
:10394000214601A8FFF7D4F8D5A101A8FFF7D0F8C8
:10395000D4480078FFF723F90446214601A8FFF771
:10396000C7F8CFA101A8FFF7C3F8CF480078FFF749
:1039700016F90446214601A8FFF7BAF8CBA101A821
:10398000FFF7B6F8002301AA02210846FFF7CBFC97
:1039900000E002E0FFF7FFFCB9E0B348007850BB5D
:1039A00001A8FFF790F8C3490888FFF7D5F8044647
:1039B000214601A8FFF79CF8BE494888FFF7CCF8DC
:1039C0000446214601A8FFF793F8012301AA1946EE
:1039D0000020FFF7A8FC01A8FFF775F8B6A101A821
:1039E000FFF786F8012301AA02210020FFF79BFCC4
:1039F000FFF7E6FC8BE09C48007802282AD101A85A
:103A0000FFF761F8AB490888FFF7A6F8044621469E
:103A100001A8FFF76DF8A7494888FFF79DF804460D
:103A2000214601A8FFF764F8012301AA19460020E6
:103A3000FFF779FC01A8FFF746F8A3A101A8FFF75B
:103A400057F8012301AA02210020FFF76CFCFFF7C1
:103A5000B7FC5CE08448007806282AD101A8FFF76B
:103A600032F894490888FFF777F80446214601A800
:103A7000FFF73EF88F494888FFF76EF80446214665
:103A800001A8FFF735F8012301AA19460020FFF726
:103A90004AFC01A8FFF717F88FA101A8FFF728F843
:103AA000012301AA02210020FFF73DFCFFF788FC5B
:103AB0002DE06D480078072829D101A8FFF703F809
:103AC0007C490888FFF748F80446214601A8FFF71B
:103AD0000FF878494888FFF73FF80446214601A8C7
:103AE000FFF706F8012301AA19460020FFF71BFC87
:103AF00001A8FEF7E8FF7BA101A8FEF7F9FF01236B
:103B000001AA02210020FFF70EFCFFF759FCC82094
:103B1000FEF739FDBAE600240A25BB26FFE000F0D7
:103B200011FE00F0F2FB0646262E72D17148007895
:103B300060490880084600884FF6FF7101EA0020BE
:103B40005C490880084600886A4949780843594911
:103B50000880684880784880084640884FF6FF71A2
:103B600001EA002053494880084640886149C978E5
:103B700008435049488010225F49604800F01AF914
:103B800000242CE05C4830F814004A490988884237
:103B900013D15949601C31F81000464949888842C0
:103BA0000BD106203049087000203049091D0860FB
:103BB000FA215348FEF73EF913E04F4830F814005D
:103BC0004FF6FF71884208D14B49601C31F8100054
:103BD0004FF6FF71884200D103E0A01CC4B2102C44
:103BE000D0DB00BF47480078C0B1002045490870CD
:103BF0001D48007806280DD000201B4908703F4959
:103C000001EB440141F0006002222A4900F0E3F890
:103C10001FE00EE00220144908701AE012480078F4
:103C2000062816D000201149086007200E490870A8
:103C30000FE005200C49087001200C4908600C4970
:103C4000C1F8B40100203049086032212C48FEF749
:103C5000F1F80A2D5EDB00250D49074856E000000B
:103C6000B40122420000224236000020B0812142ED
:103C700000802142543A20002E0000200000244001
:103C8000646567202020202000000000483A2000C2
:103C900030000020252020202020000032000020BD
:103CA00020000000330000203400002020202020CD
:103CB000202000003800002020575249544520534E
:103CC00055434345535320002055534552204558F2
:103CD000495354454420000056414C4944415449FD
:103CE0004F4E000056414C49444154494F4E2046E6
:103CF00041494C003C020020080E0020507F000883
:103D000000040040410200208C012142FFF797FC93
:103D1000FEF764FD6420FEF736FC681CC5B2FEE6C3
:103D200070B50446002500BF00F09AFF02F02EFD9A
:103D300005460123104A0021AFF2252002F006F9C2
:103D400002230E4A0021AFF2C74002F0FFF803231E
:103D50000B4A0021AFF2F74002F0F8F80923094AB4
:103D60000021AFF2135002F0F1F80A2002F06EFBCE
:103D7000284602F00FFD70BD04080020040A002050
:103D8000040C0020040E00200146088870472DE92D
:103D9000F04105460E461746002407E036F8141099
:103DA0002846FEF7EEF9AD1C601C84B2BC42F5DB80
:103DB000BDE8F08130B503460C461546002207E009
:103DC0001846FFF7E1FF24F812009B1C501C82B23A
:103DD000AA42F5DB30BD2DE9F05F80468A461746E2
:103DE000B8F1006F02D33748804501D3BDE8F09F9A
:103DF000FEF77FF8A8F1006B4FEA9B25CBF348094B
:103E0000C9F50074A74200DC3C464DE04FF000616C
:103E100001EB85208A142C49FFF7CCFF00260BE02C
:103E200009EB0600284931F810004FF6FF7188426F
:103E300000D003E0701C86B2A642F1DB00BFA642B0
:103E40001BDA4FF0006101EB8520FEF797F80026A2
:103E500008E03AF8160006EB09011B4A22F81100A7
:103E6000701C86B2A642F4DB4FF0006101EB8520A6
:103E70008A141549FFF78BFF04E02246514640465D
:103E8000FFF785FFA74200D10FE06D1C4FF000093E
:103E90000AEB440AA044381B87B2B7F5007F02DD65
:103EA0004FF4007400E03C46B0E700BFFEF72DF889
:103EB00000BF9BE713B50446012201A92046FFF786
:103EC0008AFF1CBD00800008280E002070B5044643
:103ED000002517E004F0800020B18021FC48FCF7A9
:103EE00064FC03E08021FA48FCF761FC2021F848DB
:103EF000FCF75DFC2021F648FCF757FC6006040E39
:103F0000681CC5B2082DE5DB70BD70B504460D46D2
:103F10007E2000EA44061021ED48FCF748FC3046BC
:103F2000FFF7D4FF2846FFF7D1FF1021E848FCF740
:103F30003CFC70BD70B5002513E06006040E202126
:103F4000E348FCF734FC4021E148FCF714FC01286D
:103F500001D144F001042021DD48FCF726FC681C57
:103F6000C5B2082DE9DB204670BD70B504467E2041
:103F700000EA440040F080051021D548FCF717FC0A
:103F80002846FFF7A3FFFFF7D5FF06461021D048CC
:103F9000FCF70BFC304670BD70B505460C46284654
:103FA000FFF7E3FF064646EA04012846FFF7ADFFA8
:103FB00070BD70B505460C462846FFF7D6FF06468D
:103FC00026EA04012846FFF7A0FF70BD2DE9FE4F49
:103FD0000646884691469A46DDF830B0BB200290EE
:103FE0000020019000900C2E06D00E2E09D1122038
:103FF00001901020009005E0772001903020009083
:1040000000E000BF00BF019840F080010220FFF7F0
:104010007CFF80210420FFF7CCFF00210120FFF767
:1040200074FF80210A20FFF7B7FF002505E018F88C
:1040300005100920FFF769FF6D1C4D45F7D3314688
:104040000120FFF762FF0C2E03D180210D20FFF726
:10405000A3FF4FF47A7500BF0420FFF786FF0446E4
:104060006D1E35B104F0010018B9009820400028F9
:10407000F2D080210D20FFF79CFF95B30620FFF7BB
:1040800074FF00F01B0068BB2620029001982040BE
:1040900000F0010008B1CC2002900C2E24D10A209F
:1040A000FFF763FF04460C20FFF75FFF00F00707F0
:1040B0002FB1601E07EBC000CBF8000002E0E0006B
:1040C000CBF8000004B90124122C00DD12240025D5
:1040D00005E00920FFF749FF0AF805006D1CA5421D
:1040E000F7D301E0BB20029080210C20FFF754FFA2
:1040F00000210120FFF709FF0298BDE8FE8F2DE99E
:10410000F04107468846154604210520FFF751FF78
:1041100000210120FFF7F9FE80210A20FFF73CFF74
:10412000002405E0395D0920FFF7EFFE601CC4B2F2
:104130004445F7DB03210120FFF7E7FEFF2400BF22
:104140000520FFF712FF0646601EC4B21CB106F040
:1041500004000028F4D02220FFF707FF2870212058
:10416000FFF703FF6870BDE8F08170B588B00546C1
:1041700093208DF80C0070208DF80D0000208DF834
:10418000120000240BE0295D03AAA01C11549DF825
:104190001200295D48408DF81200601CC4B2042C46
:1041A000F1DB0DF11302072103A8FFF7A8FF082197
:1041B0000846FFF7FEFE02A803AB092203A9009000
:1041C0000C20FFF703FF0646262E03D1029818287D
:1041D00000D100E0BB26304608B070BDF0B587B016
:1041E0000546002708210846FFF7E3FE00210D20C1
:1041F000FFF78BFE80210E20FFF7DBFE93208DF86A
:10420000080020208DF8090001A802AB022202A9B3
:1042100000900C20FFF7DAFE0646262E10D100246F
:1042200007E002A8005D285502A8005D4740601C19
:10423000C4B2042CF5DB02A8005DB84200D0BB2656
:1042400080210E20FFF7A8FE304607B0F0BD70B504
:1042500088B005460C4608210846FFF7AAFE07214C
:104260000D20FFF752FE03211420FFF795FE8DF875
:104270000C5002A803AB012203A900900C20FFF709
:10428000A5FE0646262E09D10298102806D19DF8D3
:104290000C0020709DF80D00607000E0BB263046D9
:1042A00008B070BD10B5BB240A495220FFF7CFFFFC
:1042B0000446262C09D10748FFF790FF0446262C18
:1042C00003D10448FFF751FF0446204610BD00000B
:1042D000000801403C02002000B587B050208DF856
:1042E000080000208DF809000DF10A02022102A841
:1042F000FFF705FF01A802AB042202A900900C20E1
:10430000FFF764FE262007B000BD10B5BB24FFF701
:10431000C9FF0446262C02D1FFF7DEFF04462046E3
:1043200010BDF0B587B005460E4630208DF8080068
:104330008DF809500DF10A02022102A8FFF7DFFEF5
:1043400001A802AB042202A900900C20FFF73EFE58
:104350000746262F0CD10198902809D1002404E0AB
:1043600002A8005D3055601CC4B2102CF8DB00E0E0
:10437000BB27384607B0F0BD2DE9F04387B00646AD
:104380000F46904699468DF808608DF80970002414
:1043900006E018F8041002AAA01C1154601CC4B254
:1043A000062CF6DB002407E019F8041002AA04F139
:1043B00008001154601CC4B2062CF5DB01A802AB46
:1043C0000C2202A900900E20FFF700FE0546262DC4
:1043D00005D10820FFF7C9FD00F0080000B9BB2592
:1043E000284607B0BDE8F08370B50546BB24FFF74B
:1043F00059FF0446262C0DD1BA4BBB4A29466020F2
:10440000FFF7BAFF0446262C04D1B8492846FFF727
:1044100088FF0446204670BDF0B587B006460F46BB
:10442000A0208DF808008DF809600DF10A02022124
:1044300002A8FFF764FE01A802AB042202A90090C3
:104440000C20FFF7C3FD0546262D08D1019804284E
:1044500005D19DF8080000F00F000A2800D0BB2508
:10446000262D22D1002404E0385D02A90855601CE5
:10447000C4B2102CF8DB06AA102102A8FFF73FFEF9
:1044800001A802AB122202A900900C20FFF79EFDAA
:104490000546262D08D10198042805D19DF808006D
:1044A00000F00F000A2800D0BB25284607B0F0BD59
:1044B00070B50546BB24FFF7F5FE0446262C0DD14A
:1044C000884B894A29466020FFF756FF0446262C70
:1044D00004D187492846FFF79FFF0446204670BD58
:1044E00010B501218348FCF760F90120FEF720F8A0
:1044F00001218048FCF75BF90120FEF719F8012142
:104500007C48FCF752F90120FEF712F80F21012038
:10451000FFF7FBFC00BF0120FFF727FD00F01000B4
:104520000028F8D10120FEF703F83D211120FFF704
:10453000ECFC1E212D20FFF7E8FC00212C20FFF7CA
:10454000E4FC8D212A20FFF7E0FC3E212B20FFF721
:10455000DCFC40211520FFF7D8FC10BD08B5012177
:104560000420FCF731FB1020ADF8000003208DF88B
:10457000020010208DF8030069465F48FCF768F8D8
:1045800001210420FCF720FB2020ADF800000320CF
:104590008DF8020010208DF8030069465648FCF79C
:1045A00057F801210420FCF70FFB8020ADF8000034
:1045B00003208DF8020010208DF8030069464E4854
:1045C000FCF746F801210420FCF7FEFA4020ADF884
:1045D000000004208DF8030069464748FCF738F8CE
:1045E00001210820FCF7F0FA0120ADF800000320BB
:1045F0008DF8020010208DF8030069463D48FCF755
:1046000027F808BD10B5FFF7A9FF01213948FCF7CD
:10461000CCF810213848FCF7C8F8FFF761FF10BD4F
:1046200010B51420FFF7A1FC044604F0030018B9EC
:1046300003211420FFF7B0FC10BD10B50321142096
:10464000FFF7B7FC10BD10B50446412C24D108215A
:104650000846FFF7AEFC3D211120FFF756FC8621EE
:104660001720FFF752FC7F212620FFF74EFC1E216A
:104670002D20FFF74AFC00212C20FFF746FC8D215E
:104680002A20FFF742FC3E212B20FFF73EFC0220B0
:10469000FDF74EFFFFF7C4FF10BDF8B504460D4609
:1046A00017461E460020009069465220FFF7CFFDB6
:1046B0006846FFF793FD2046FFF757FD23462A463D
:1046C00010216020FFF758FE27B131461020FFF778
:1046D00028FE03E031461020FFF79EFEFFF7FCFDA9
:1046E000F8BD00003C0200203C0000202812002001
:1046F00038120020000C01400008014010B545F2BE
:104700005550FDF7B5FE0620FDF7B5FEFA20FDF782
:10471000B5FEFDF7BBFEFDF7B4FE10BD08B50121E7
:104720000820FCF751FA4FF44070ADF80000482023
:104730008DF8030003208DF8020069461648FBF748
:1047400087FF08BD10B51548006870B90A20FDF74D
:104750001AFF0020114990310860012010490870AB
:1047600000BF0E4800680028FBD00C48001D006800
:1047700078B90A20FDF707FF002008499431086046
:1047800001200849087000BF0448001D0068002887
:10479000FAD0002010BD0000000C01402081214211
:1047A00040020020410200207CB5002514E069464B
:1047B000284601F009FE064666B9F64850F825403D
:1047C00044B1012C06D0D4E9020100EB8100606401
:1047D0000198A064681CC5B2112DE8D97CBD0024E5
:1047E00000BF02E0282001F0F9FEEB480078002825
:1047F000F8D0EA4800686421B0FBF1F0E7490860AE
:104800000846006828B90020E5490870FF2001F03B
:104810001DFE00BF01F0BAFF0446E2480068E2490D
:1048200008600020DF490860204601F0B3FFDE4841
:104830000068DA490968B0FBF1F0C0F16400D849BA
:10484000087002F002F8FFF7AFFF142001F0C6FE77
:10485000E0E700B587B0032000218022D34BCDE9EB
:104860000132CDE903104FF6FE701023D04A0090BC
:10487000AFF2950001F0C1FB06AACEA1102001F015
:1048800025FD07B000BD002400BF00BF01F07EFF82
:104890000446C4480068401CC2490860204601F034
:1048A00079FF01F0D1FFF1E700B587B003200021C7
:1048B0008022C44BCDE90132CDE903104FF6FF70E1
:1048C0001123C14A0090AFF2410001F096FB06AA05
:1048D000BEA1112001F0FAFC07B000BD04E00022E7
:1048E00000F8012B4A1E91B20029F8D1704770B52B
:1048F000A021BA48FFF7F2FF00230BE0581C85B255
:10490000B64800EB031400EB05160020207066602B
:10491000581C83B2092BF1D3B04800EB03140020DC
:1049200020706060AD48AE49086070BD70B54FF44E
:104930007C71AC48FFF7D2FF48219648FFF7CEFFC5
:10494000002413E0601CC5B2C4EBC40000EB4000BF
:10495000A44901EB8003C5EBC50000EB400001EB6F
:1049600080065E61A0A0D864601CC4B20B2CE9D3A1
:10497000C4EBC40000EB40009A4901EB8003002027
:10498000586199A0D86400209849086095489849D2
:10499000086070BD0021974A1170002004E00021DA
:1049A000954A1154411CC8B20328F8D30021934AF8
:1049B0001170934A1170934A1160934A11607047C5
:1049C0000020924908609249087092490870924903
:1049D00008709249087092490860724908607249EB
:1049E00008606E4908606C490870704710B501F0A6
:1049F00027FFFFF7E5FFFFF7CDFFFFF797FFFFF773
:104A000076FF00F0E7FE01F0DEF9FFF74DFFFFF75C
:104A100020FF01F016FF10BD80480078012808D162
:104A20007B480078FF2804D279480078401C7849F8
:104A3000087070477B496F4A1278885C6E49095C40
:104A4000784A515C01EBC0016D4A1170704710B596
:104A5000002472480078012830D101F097FE044606
:104A60006B48007820B16A480078401E6849087099
:104A700067480078F8B967480078E0B9FFF7DAFFCF
:104A800044485F49097850F821005E4908605C4855
:104A900000785A49097888420DD05A480068806BDE
:104AA000401C5849096888635D480068401C5C499F
:104AB000086001F08AFE204601F06CFE10BD10B5C2
:104AC000002456480078012811D101F05FFE044609
:104AD0004F48007840B94F480078FF2804D24D482D
:104AE0000078401C4B490870204601F053FE10BD71
:104AF00010B5002401F04AFE044645480078F8B994
:104B000044480078E0B9FFF795FF22483C4909780E
:104B100050F821003B490860394800783749097846
:104B200088420DD037480068806B401C35490968C1
:104B300088633B480068401C3949086001F03EFE2C
:104B4000204601F027FE10BD10B500243348007840
:104B500001286CD101F01AFE04462E480078C0B13D
:104B60002C480078401E2B4908700846007860B930
:104B70002748007828B9204601F00CFEFFF7B8FF5F
:104B800055E0204601F006FE51E0204601F002FE0D
:104B90004DE049E0381700205C020020540200205C
:104BA0005002002068020020580200203813002024
:104BB0003415002075432F4F532D494920537461FC
:104BC00074000000381500203417002075432F4F63
:104BD000532D49492049646C6500000048120020AB
:104BE00048020020801700203F00000078020020CB
:104BF0007002002061020020620200205F0200209B
:104C000060020020740200206C0200208402002058
:104C10005D0200205E020020660200206502002086
:104C200044020020D87D0008204601F0B3FD10BDED
:104C300010B5EB48007890B9FFF7FCFEE948007822
:104C4000E9490870E948E749097850F82100E8493E
:104C5000086008460068E749086001F09EFD10BD45
:104C600010B50024022001F0B9FC01F08FFD0446CC
:104C70000020E1490860204601F08CFD142001F07D
:104C8000ADFC01F083FD0446DB480068DB490860A9
:104C90000120DB490870204601F07CFD10BD70B595
:104CA000002601F022FE01F071FD0646D54800689D
:104CB000401CD4490860304601F06CFDC8480078BB
:104CC000012853D1D048007820B1012804D002280F
:104CD00009D103E001250BE0002509E001250120B1
:104CE000C949087004E001250020C749087000BFC9
:104CF00000BF05B970BDC548046833E001F046FD4A
:104D00000646E06A50B3E06A401EE062E06A28BBF3
:104D100094F8300000F0370040B114F8300F00F084
:104D2000C800207001206070303C02E0002084F850
:104D3000310094F8300000F0080078B93434A078DD
:104D4000B34909780843B24908702078B149085C32
:104D50006178084314F83419AE4A505464693046F7
:104D600001F018FD94F832001128C7D100BFC1E747
:104D700040F223107047704710B590F8342001F1CD
:104D80000B039B5C90F83540A34301F10B04A35443
:104D900023469B5C23B98B7A90F83640A3438B72F1
:104DA00010BD2DE9F04F05460F4690469946A87A6A
:104DB00099490E5C05F10B00805D11F800B00BEB1A
:104DC000C60000F0FF0A894850F82A40002020342D
:104DD000E0602760207C20EA0800207484F81190AD
:104DE000207C203C00F0080068B994F8360088491F
:104DF00009780843864908708648805D94F8351024
:104E000008438449885529462046FFF7B5FF504698
:104E1000BDE8F08F10B5774A1268D061754A126804
:104E200092F8343000F10B02D25C724B1B6893F89D
:104E300035301A436F4B1B6893F8344000F10B0375
:104E40001A55827A6B4B1B6893F836301A4382727C
:104E5000684A126892F834106E4A525C654B1B68BF
:104E600093F835309A436B4B5A541A46525C42B908
:104E7000604A126892F83630654A12789A43644B59
:104E80001A7010BD014600228A72002005E000233E
:104E900001F10B021354421CD0B20328F7D3704720
:104EA00005E011F8013B00F8013B531E9AB2002ABD
:104EB000F7D170470146002002E0491C421CD0B2E5
:104EC0000A78002AF9D170472DE9F84F05460F46B8
:104ED00090469946DDE90AAB0020009001F056FCAF
:104EE00000904E480468002C75D0183454F8040C17
:104EF0004A490860009801F04DFC44F8187CA576FA
:104F0000002020766076606144F814BC44F80CAC54
:104F100044F8108C0C9824F8080C24F8069C002007
:104F2000E077E810207705F00700E076217F012088
:104F30008840A077E17E0120884060770020606093
:104F4000E060A0602062A0626062E0622063AFF275
:104F500068306063183C002606E0002104F1500030
:104F600040F82610701CC6B2002EF6D0204601F084
:104F7000BBFC204601F066FC01F008FC00901B48D9
:104F800040F825402148006860610020A0611F486A
:104F9000006810B11D48006884611C480460343406
:104FA000A0781B49097808431949087020781949E5
:104FB000085C6178084314F83419164A50541848AC
:104FC0000078401C16490870009801F0E3FB0020AF
:104FD000BDE8F88FFFE7009801F0DCFB4220F7E71F
:104FE00065020020600200205F02002038170020C8
:104FF000740200206C02002068020020540200208D
:105000005C020020840200207C0200207802002044
:105010006102002062020020D87D0008700200209A
:10502000660200202DE9F05F04460F4691461E46B9
:105030004FF0000B2078052804D0012030700020AC
:10504000BDE8F09F09F0800ABAF1000F04D029F002
:1050500080094FF0010801E04FF000080020307097
:1050600001F094FB8346B9F1000F2CD0B9F1010F88
:105070003BD0B9F1020F03D0B9F1030F46D111E0D3
:10508000208900EA0705BD4206D1B8F1010F05D11C
:105090002089A843208101E070203070584601F03B
:1050A00079FB3AE0208900EA070535B1B8F1010F34
:1050B00005D12089A843208101E070203070584636
:1050C00001F068FB29E0208927EA0005BD4206D1EE
:1050D000B8F1010F05D120892843208101E070201B
:1050E0003070584601F056FB17E0208927EA00058A
:1050F00035B1B8F1010F05D120892843208101E0A5
:1051000070203070584601F045FB06E0584601F02B
:1051100041FB00256F20307000BF00BF28468FE79D
:105120002DE9F04106460D460027FA48007820B1E7
:10513000102028700020BDE8F08101F027FB074611
:10514000F548046884B100684068F34908600520A8
:105150002070268100206060F0A0E060384601F0F9
:1051600019FB0020287004E0384601F013FB722080
:1051700028702046DFE730B501464A6808682AB93A
:10518000CC68606028B10025456002E0106000B185
:1051900042608B6800255D6230BDF0B506460F4663
:1051A000B4680020283460602780207A00F0DF0097
:1051B000207200206072207A283C88B93434A078AC
:1051C000D74909780843D64908702078D549085C42
:1051D0006178084314F83419D24A5054012500E08C
:1051E00000253046FFF7C7FF2846F0BD2DE9F04700
:1051F0000446894615464FF0000AC648007820B19B
:105200000F2028702046BDE8F0872078052803D0BD
:10521000012028702046F6E701F0B8FA824660685F
:1052200008B1012700E00027B9F1000F03D0B9F160
:10523000010F3CD119E08FB9B8A0E06000202070C8
:10524000B5480068606000202081B3480460504683
:1052500001F0A0FA00202870002605E0504601F079
:1052600099FA49202870264628E0D4F8048005E001
:1052700000214046FFF791FFD8F80080B8F1000FF9
:10528000F6D1A6A0E06000202070A348006860600E
:1052900000202081A0480460504601F07BFA012FD5
:1052A00001D1FFF725FC00202870002606E05046BB
:1052B00001F070FA07202870264600BF00BF304674
:1052C000A1E72DE9F04105460E4614460027914816
:1052D000007820B1112020700020BDE8F08101F09D
:1052E00055FA07462878052806D0384601F052FAC4
:1052F000012020700020F0E7E86830603068FFF798
:10530000D9FD8046384601F045FA0020207040461D
:10531000E3E72DE9F04105460E46144600277D4897
:10532000007818B112202070BDE8F08101F02EFA4B
:1053300007462878052805D0384601F02BFA0120C9
:105340002070F1E7EE60384601F024FA002020706A
:1053500000BFE9E7F0B51446059E734F3F6897F824
:10536000307047F02007DFF8C0C1DCF800C08CF8CF
:1053700030700027DFF8B0C1DCF800C08CF8317065
:10538000694F3F68FE62684F3F6879620C828B7498
:10539000654F3F688F6047680F6000274F60C860A7
:1053A000456805B1696041605F4F3F6897F83420F8
:1053B0005C4FBF5CDFF870C1DCF800C09CF835C002
:1053C00027EA0C07DFF85CC10CF802706746BF5C87
:1053D0005FB9554F3F6897F836C0514F3F7827EA7D
:1053E0000C07DFF83CC18CF80070F0BD2DE9F04FE0
:1053F00089B005460F4691469A46129E00200290BB
:105400004448007828B102203070002009B0BDE87F
:10541000F08F4648007818B10D2030700020F5E775
:105420002878052803D0012030700020EEE709F02D
:10543000800BBBF1000F04D009F07F094FF0010889
:1054400001E04FF0000801F0A1F90290B9F1000F5E
:105450004AD0B9F1010F78D0B9F1020F03D0B9F1F8
:10546000030F71D120E0288900EA0704BC420FD164
:10547000B8F1010F02D12889A04328812A48006889
:105480000485029801F086F9002030702046BDE7BF
:105490004B463A4604A92846CDF800A0FFF75AFF2C
:1054A000029801F077F978E0288900EA07047CB1D6
:1054B000B8F1010F02D12889A04328811A48006859
:1054C0000485029801F066F90020307020469DE7BF
:1054D0004B463A4604A92846CDF800A0FFF73AFF0C
:1054E000029801F057F958E0288927EA0004BC42E5
:1054F0001ED1B8F1010F02D12889204328810A4822
:1055000000680485029801F045F9002030702046BB
:105510007CE71AE05D0200204C0200203F00000002
:1055200061020020620200206C0200205E02002066
:105530004B463A4604A92846CDF800A0FFF70AFFDB
:10554000029801F027F928E01FE0288927EA0004E3
:105550007CB1B8F1010F02D1288920432881B148DC
:1055600000680485029801F015F90020307020468B
:105570004CE74B463A4604A92846CDF800A0FFF771
:10558000E9FE029801F006F907E0029801F002F93D
:1055900000246F203070204638E700BFFFF7A8FADC
:1055A00001F0F4F802909F48006890F8310020B3B1
:1055B0009C48006890F831000390002099490968E0
:1055C00081F8310004A8FFF7D6FD0020954909684D
:1055D00081F83000029801F0DDF8002403980128DA
:1055E00005D0022802D10E20307003E000BF0A204F
:1055F000307000BF00BF204608E78A480068048D6D
:10560000B8F1010F1ED1B9F1000F0ED0B9F1010FA1
:105610000CD0B9F1020F03D0B9F1030F0AD100E0A9
:1056200000BF2889A04328810BE000BF28892043C0
:10563000288106E0029801F0ADF86F20307000205C
:10564000E4E600BF029801F0A5F800203070204683
:10565000DCE670B5002501F099F805467148006850
:10566000048D284601F096F8204670BD2DE9FC5FB8
:105670000446894692461E46002000902078052860
:1056800004D0012030700020BDE8FC9F01F07EF8BE
:105690000090BAF1000F03D0BAF1010F0AD104E073
:1056A000208920EA090020810BE0208940EA0900D6
:1056B000208106E0009801F06DF871203070002024
:1056C000E2E700BF4FF0000B656855E0A87C40B3EF
:1056D000012838D0022802D0032844D111E02089C3
:1056E000298A00EA0107288AB84209D139462846A2
:1056F000FFF753FD8046B8F1010F01D14FF0010BC8
:1057000038E02089298A00EA01074FB13946284646
:10571000FFF743FD8046B8F1010F01D14FF0010BB7
:1057200028E0288A218920EA0107288AB84209D17D
:1057300039462846FFF731FD8046B8F1010F01D107
:105740004FF0010B16E0288A218920EA01074FB1AA
:1057500039462846FFF721FD8046B8F1010F01D1F7
:105760004FF0010B06E0009801F014F86F20307044
:10577000002089E700BF2D68002DA7D1009801F017
:1057800009F8BBF1010F01D1FFF7B2F900F0FEFFFC
:10579000009020890190009800F0FCFF00203070FC
:1057A000019871E72DE9F04104460D460027207865
:1057B000052804D0012028700020BDE8F08100F009
:1057C000E5FF07462689384600F0E4FF00202870F0
:1057D0003046F2E72DE9F04150211348FFF77EF8FB
:1057E00000250EE0681C86B20F4800EB051400EBA4
:1057F0000617002020706760AFF2E020E060681CB0
:1058000085B2042DEED3084800EB0514002020706B
:105810006060AFF2F820E060034804490860BDE82A
:10582000F08100006C020020E81200204C020020F1
:105830002DE9F04106460D464FF000083078022869
:1058400004D0012028700020BDE8F08100F09EFF08
:1058500080467468E08A78B12169081D20610F686C
:10586000E08A401EE082A1682069884201D1606818
:1058700020610020287002E01F2028700027404689
:1058800000F088FF3846DFE72DE9F04106460F4675
:105890004FF00008F748007810B10020BDE8F08113
:1058A00000F074FF8046F4480568006820B1F248B3
:1058B00000684068F0490860404600F06BFF3DB367
:1058C00000F064FF8046ED480468C4B100680068D9
:1058D000EA490860404600F05DFF666006EB87001D
:1058E000A060E6602661A7820020E0820220287086
:1058F000002028816C602846FFF7C4FA08E0DE48E3
:1059000000686860DC480560404600F043FF002501
:105910002846C3E72DE9F0470446894615464FF06F
:10592000000A2078022804D0012028702046BDE813
:10593000F087D048007818B10F2028702046F6E78D
:1059400000F024FF8246A07A10B14FF0010801E078
:105950004FF00008B9F1000F03D0B9F1010F45D1A4
:105960001FE0B8F1000F15D16668C44800683060C8
:10597000C248066000202070BF48006860600020B8
:105980002081BD480460504600F004FF00202870CC
:10599000002705E0504600F0FDFE4920287027460C
:1059A0002BE005E00023042219462046FFF7F9F911
:1059B000A07A0028F6D16668B04800683060AF4829
:1059C000066000202070AC480068606000202081E4
:1059D000A9480460504600F0DDFEB8F1010F01D186
:1059E000FFF786F800202870002706E0504600F0F8
:1059F000D1FE07202870274600BF00BF384696E733
:105A000070B50546002600F0C1FE06466C68606869
:105A1000E060606820610020E082304600F0BAFE5D
:105A2000002070BD2DE9F0470746884615464FF027
:105A300000093878022804D0012028700020BDE831
:105A4000F0878C48007818B1022028700020F6E713
:105A50008B48007818B10D2028700020EFE700F087
:105A600095FE81467C68E08A98B12169081D206115
:105A70000E68E08A401EE082A1682069884201D158
:105A800060682061484600F085FE0020287030469E
:105A9000D5E77C48006890F8300040F00400794970
:105AA000096881F8300000207649096881F83100E2
:105AB00074480068C0F82C803846FFF7ABF94846B8
:105AC00000F068FEFFF714F800F060FE81466D48B4
:105AD000006890F8310020B101280DD002280AD1C9
